:020000022000DC
:1070000000020020A98302004583020001830200E0
:1070100055830200658302007583020000000000B2
:10702000000000000000000000000000E5820200F7
:10703000858302000000000099820200958302000F
:107040002F3F03008D510300A1450300E586020098
:10705000018702002F3F03002F3F03002F3F030053
:107060002F3F0300694303006F4303002F3F0300DA
:107070002F3F03002F3F03002F3F03002F3F03004C
:107080002F3F0300594003002F3F03002F3F030011
:107090002F3F03002F3F03002F3F03002F3F03002C
:1070A0002F3F03002F3F0300754303007B43030082
:1070B0002F3F03002F3F03000000000000000000EE
:1070C0002F3F03002F3F03002F3F03001D870200C7
:1070D0002F3F03002F3F03002F3F0300514B0300BE
:1070E0002F3F03002F3F03002F3F0300000000004D
:1070F000000000002F3F030000000000398702005D
:107100002DE9F0434A484B4D4B4E8FB0082100F01B
:1071100095FC4A4B4A48197813F034FC02A800F059
:1071200076FCBDF80A30B3F5017F11D840F2022297
:10713000934278D840F2012293423AD02C78002C26
:10714000ECD1404813F08EFC20460FB0BDE8F08330
:107150004FF6F1729342F1D13B4813F083FC0EF0ED
:1071600047FA40F20143B0FBF3F303EB8323C41A65
:107170002346364A082106A813F0CCF906A813F0D6
:1071800042FD06A90246324800F0DEF931482146A8
:1071900013F0F8FB2B78002BD0D02F4B2F48B3F9EE
:1071A000003000932E4A2F4B2F49006812F0ACFE9E
:1071B000C4E72E48DFF8BC8013F054FC039C24B9CC
:1071C0000398214607F07EFCB8E794F90C90B9F1DA
:1071D000000F26D12022494606A813F074FCA768A8
:1071E00061681F2F28BF1F273A4606A813F0FDFC31
:1071F00007F138030DEB030706A807F8209C13F0EE
:1072000025F83368D8F8002013FA80F30132336090
:10721000C8F8002081B200931548B3FBF2F313F0D5
:10722000B1FB2468CBE704A902A800F0C7FB85E7FF
:10723000100700200C030020F4020020F8020020B8
:1072400010BA0300A8BA03006CBA030094CA030082
:1072500087BA03008FBA03000E03002054F4030022
:1072600080841E0000020020FC0200202CBA0300D3
:107270003ABA0300F00200202DE9F041431E012B31
:1072800088B0044606D901463A4808B0BDE8F04146
:1072900013F078BB384E35782DB1384808B0BDE8CA
:1072A000F04113F0DFBB364B36493070022818BF6F
:1072B00019463548DFF8048113F064FB334A344B38
:1072C0003448022C08BF1346CDE90153324B0093DA
:1072D00006222B464FF4806100F06EFD3378A8F84B
:1072E0000000012B22D128460CF076FD074605F060
:1072F00063FF40222F21064628480BF0A7FF10F01D
:10730000FF0408BF4024254904A80CF02BF81023E3
:107310002202009342F010026B440921384605F026
:107320005AFF002805DA1E4813F09CFB08B0BDE8A0
:10733000F0811A491B4813F025FB304607F0E2FEA6
:10734000002801DA1848EFE7184813F08BFB2B46AA
:107350002A4604A9F0B208F089F808B91448E3E70E
:10736000144813F07FFBB8F9000000F0D3F812487E
:10737000DAE700BFD7BA0300F8020020EBBA030037
:10738000BEBA0300B7BA030001BB0300C3BA0300CF
:10739000CEBA0300100300200171020087BA030077
:1073A00017BB030036BB03005ABB030074BB0300CA
:1073B0008EBB0300ADBB0300CABB03000E0300205D
:1073C000024A00231370024A13707047F80200202B
:1073D0000C030020012837B554DD4C6831492046A4
:1073E00013F0F1FB40B90120FFF746FF2E4B0122BD
:1073F0001A70002003B030BD2C49204613F0E3FB87
:10740000054670B90220FFF737FF294BB3F900306A
:107410000093284B2A4628482849006812F074FD3A
:10742000E4E72749204613F0CEFB024678B9254B06
:107430001B7823B9244813F015FB0120DAE7022B4F
:10744000D4D11B4BB3F9003000931A4BE3E71F492B
:10745000204613F0B8FB68B9174B18491C68204642
:1074600012F0A5FB18B11549204612F0E6FB0E4BB1
:107470000022BDE71649204613F0A5FB10B9FFF71F
:107480009FFFB6E7134813F0EDFA0E4B1B78002B65
:10749000D3D0114A11491248022B18BF114613F0DC
:1074A00071FACAE7C5BB03000C030020C7BA03008A
:1074B0000E0300200002002054F40300FC02002010
:1074C000F8BB0300F8020020FEBB030028BC030049
:1074D0002DBC030034BC0300BEBA0300B7BA0300DE
:1074E0005FBC030000B50848A1B0082100F0A6FA6F
:1074F000064813F0B7FA064813F0B4FA802269463A
:1075000000200EF00DFAF9E75007002071BC0300CF
:1075100098BC03000949B1F9083010B52BB149688E
:107520000748BDE8104013F02DBA0881012404205B
:107530004C6007F02DFA03482146F2E708020020CC
:10754000B6BC0300E1BC0300F0B587B006460C46AC
:10755000154601A9024602A80CF06AFC002804DACC
:10756000274813F07FFA07B0F0BD002321462A46D2
:10757000184607F001FC044608B92248F1E7012249
:10758000114687680BF084F9054628B91E4813F0A8
:1075900069FA294620460AE002AA002102F0E2F92F
:1075A000044638B9194813F05DFA2146284607F019
:1075B00089FAD8E7019B8BB100231A461946184671
:1075C00006F0FAFE054608B91148E0E7019B42685B
:1075D0000BB1B3F9FA3153802C602C460D49234688
:1075E00040F20222042005F0AFFD054608B90A4822
:1075F000CDE7012332463946084813F0C3F9B2E714
:107600000ABD030035BD030061BD030086BD030054
:10761000ACBD03000000FFFFD3BD0300F6BD0300B7
:1076200070B5064B064E9B1B9C080025AC4200D152
:1076300070BD56F8253098470135F7E7A0F50300EF
:1076400074F5030013B500200DF06CFA014608B97B
:1076500000F0C4FC084C204611F016FA204612F047
:10766000BBF9064B0648009401224FF4806111F0EB
:1076700017FA02B010BD00BF900700201BBE030028
:1076800040090020704700004FF080435722C3F8A4
:107690001C25BFF34F8F0549054BCA6802F4E06211
:1076A0001343CB60BFF34F8F00BFFDE700ED00E059
:1076B0000400FA050346D0E9072010B59C69141BA5
:1076C000A04201DA002010BD541C0240DC61F9D454
:1076D000586A00EBC20203C982E803001A896FEA04
:1076E00042426FEA52421A81184600F011FC012012
:1076F000E9E7000008B50E4B53F82130A3B11A7921
:10770000042A0BD103C81A6982E8030018460C2129
:1077100000F072FA074B0120186008BD01461846B8
:10772000BDE80840FFF7C6BF4FF0FF30F5E700BFE8
:10773000900D0020840D00202DE9F0411D46294BBD
:1077400053F82140284B1B880380064690462CB9ED
:1077500085F310884FF0FF30BDE8F0812379042BCA
:1077600036D0224B014620461F68FFF7A3FF78B1B1
:1077700085F310883B79062B02D01D4B1B682BB17B
:107780001C4B4FF080525A60BFF36F8F0120E3E72C
:10779000B8F1000F02D185F31088DDE73B793E6137
:1077A000062B14BF05210621384600F025FA04F106
:1077B0001400394600F0E2FA23896FEA43436FEA86
:1077C00053432381204600F0A3FB85F31088D7E7BD
:1077D000D0E90001236983E803000C21204600F072
:1077E0000BFAF2E7900D0020140E0020880D002007
:1077F000840D002000ED00E0F8B50246EFF310869E
:1078000072B6344D2B680BB900F0E8FB5F6A002FAD
:1078100059D0D3E90640A04255D0601C9861186A3F
:10782000044039B9596929B9611C03D186F310881C
:107830002046F8BD002C4ADB07EBC40103C982E8EF
:107840000300596999B9002C2CDA0421184600F07C
:10785000D3F986F31088204B4FF080525A60BFF363
:107860006F8F2B681B79042BCED00124E0E70D46E7
:10787000002C55F80C1959610CDBD3E907209969E4
:10788000511A8842A9BF511C4FF0FF320240D96102
:1078900007EBC2022B6993E8030082E803002B790F
:1078A000062B02D186F31088DFE7002328462B61E0
:1078B0000C2100F0A1F9687986F310880E28D4D83D
:1078C00000F0D6F9D1E74FF0FF340029AAD01A61B1
:1078D000B7E700BF880D002000ED00E010B50146BD
:1078E000EFF3108472B6054B1B880380044B1868B5
:1078F000FFF7E0FE84F3108810BD00BF140E0020D7
:10790000880D002021230380FFF7F4BEEFF30583E9
:10791000DBB20BB1FFF7F6BF064B1B881BB29942D7
:1079200001D1FFF7DBBFEFF3108372B60122FFF73F
:1079300003BF00BF140E002010B4EFF3058212F055
:10794000FF0203D05DF8044BFFF7DCBF074B1B8839
:107950001BB2994203D15DF8044BFFF7BFBFEFF3B1
:10796000108372B65DF8044BFFF7E6BE140E0020DC
:10797000104B1B881BB29A422DE9F04106460C467B
:10798000154601D100F02AFBEFF3108872B60A4BBE
:107990001F680621384600F02FF996E803003C6185
:1079A000434684E80300012229462046BDE8F04111
:1079B000FFF7C2BE140E0020880D002038B5EFF38B
:1079C000108572B60F4BB0F9002053F822400CB965
:1079D00000F004FB2379062B04D085F310884FF0C8
:1079E000FF3038BD03C9236983E8030020460C211A
:1079F00000F002F9607985F3108800F039F9012070
:107A0000EFE700BF900D00200021FFF7F5BE012138
:107A1000FFF7F2BE08B5EFF3108272B6064B1B6893
:107A20000BB900F0DBFA586A10B1D3E90630C01A7E
:107A300082F3108808BD00BF880D002008B5064BF2
:107A40004A1E1B681140586201D000F0C7FAC3E912
:107A500006111A6208BD00BF880D002070B50446EB
:107A60000846EFF3108672B6236833B94FF0FF3340
:107A7000236086F31088012070BD11B986F3108849
:107A8000FAE70F4B1D680DB900F0A8FA032128464C
:107A900000F0B2F8236801330DD105F10C03236027
:107AA0000023EB6086F31088064B4FF080525A603B
:107AB000BFF36F8FDFE72946204600F05FF9F1E75B
:107AC000880D002000ED00E038B50446EFF3108586
:107AD00072B6006810B985F3108838BD431C02D116
:107AE00000232360F7E750F80C3923600C2100F0E5
:107AF00083F8236813B94FF0FF33236085F31088B0
:107B0000034B4FF080525A60BFF36F8FE5E700BF21
:107B100000ED00E008B503790B2B04BF0C230371C3
:107B2000836A1A68934208D0B0F90610034812F02D
:107B300029FF03490D2000F089FA08BD21BE03008A
:107B400050BE030010B5046844B123688B4206D1CF
:107B50009C4219BF1B6823600023036010BD1A46B6
:107B60001B68994202D09442F9D1F7E7002AF5D078
:107B700013681B6813600368994208BF0260EDE751
:107B800070B5174C174E236835683BBB15B12846B6
:107B9000FFF7C0FF00F0AEFB2368002BFAD00020F7
:107BA000114A00211160B3FA83F3104A52F82330CE
:107BB0001C680C3C0B23AC4223710DD008B1FFF7BD
:107BC000A9FF0B4BA16AB4F906201A801F31094A9C
:107BD0003460022000F0D6FA204670BD2846DFE768
:107BE000400D0020880D0020840D0020440D002051
:107BF000140E00200800061670B50A290379044601
:107C00000D461AD90A2B14D84279174B00F10C01F2
:107C100053F8220078B10068E06053F82200016058
:107C200043F8221011494FF00043D3400A68134330
:107C30000B60257170BDE160F2E70A2BF9D940793C
:107C4000094E04F10C0106EB8000FFF77BFF63791E
:107C500056F82320002AECD104494FF00042DA40C4
:107C60000B6823EA0203E3E7440D0020400D0020E7
:107C70000B4B1B681A790A2A02D95B7983420DD90A
:107C8000EFF30583DBB21BB1064B01221A6070478C
:107C9000054B4FF080525A60BFF36F8F704700BFA3
:107CA000880D0020840D002000ED00E008B5EFF302
:107CB000108372B6094B0A4A1B880A4D1BB2002476
:107CC00042F82340084A286813682146013B1360A4
:107CD000FFF792FF2C6000F0C9FA00BF140E0020DD
:107CE000900D0020880D00208C0D0020431E9BB2BB
:107CF0001F2B05D8034B53F8200010B1C06A704702
:107D000000207047900D002010B5EFF30583DBB223
:107D10007BB9EFF3108472B6064B02211868FFF7A7
:107D20006BFF84F31088044B4FF080525A60BFF30E
:107D30006F8F10BD880D002000ED00E0EFF3108084
:107D400072B60B4B1B681A790A2A07D95A79094B64
:107D500053F8221011B1096843F8221080F31088FB
:107D6000054B4FF080525A60BFF36F8F704700BFD2
:107D7000880D0020440D002000ED00E038B50B799F
:107D80000A2B01D900F02AF94C7901F10C020346C3
:107D9000006818B110F8075CA542F8D9C8601A60ED
:107DA00038BD03460144814202D90268824201D0B3
:107DB000C01A70470430F6E70F2A2DE9F84F054640
:107DC0008A469046994633D810F003031DBFC3F18D
:107DD0000402043B5B180B46A3F1340318BFAD1833
:107DE00033F0030324D419F0080F05EB030416D075
:107DF0002D60EFF3108B72B6274A0126114652F818
:107E0000047FC7B10136212EF9D18BF310886FF0B2
:107E10008A063EE012600432A242FBD3E9E72A461A
:107E2000FAE702212046FFF7E7FE8BF3108830E0E7
:107E30006FF015062DE036B22A4641F82640DDE9FE
:107E40000A01E68000F0C4F90C9B144AE3624FF08B
:107E5000FF33C4E9083713682060013319F0010FBC
:107E6000C4E90377C4E90577A562C4F830A084F8B3
:107E700005802771E7611360D3D10C212046FFF7FD
:107E8000BBFE19F0040FD0D18BF310884046FFF7EA
:107E9000EFFE3046BDE8F88F900D00208C0D0020DD
:107EA0000C2808B503D8034B53F8200008B900F09C
:107EB00095F808BDB0EF030010B50346EFF310844A
:107EC00072B6028902EA010022EA01021A8184F3F1
:107ED000108810BD0C4A034610B51068EFF31084EB
:107EE00072B6028913420CD103610721FFF784FEA9
:107EF00084F31088054B4FF080525A60BFF36F8FA8
:107F000010BD84F31088FBE7880D002000ED00E031
:107F100010B50379048A072B03D0082B0CD000245A
:107F200008E003891C4005D00C21FFF765FE054BD6
:107F300001221A60204610BD03899C43EFD1012421
:107F4000F2E700BF840D002038B5054B1D680446DC
:107F5000FFF7C0FF21462846BDE83840FFF7ACBF19
:107F6000880D002010B5EFF3108472B603890279F2
:107F70001943072A038A018104D0082A13D084F305
:107F800010880FE01942FAD00C21FFF735FE074B9D
:107F900001221A6084F31088054B4FF080525A601A
:107FA000BFF36F8F10BD8B43E9D1EDE7840D002047
:107FB00000ED00E008B5EFF30583DBB243B9EFF362
:107FC00010832BB9044812F04DFDFFF79DFEFCE72E
:107FD0000149032000F03AF8C1BE030008B571461C
:107FE000024812F0CFFCFFF7E5FF00BFD3BE03004D
:107FF00008B5FFF715FB034812F034FDFFF772FADE
:10800000002008BDDCBE03001FB5EFF3108372B67D
:10801000074B029300230193064B0093072204238E
:108020004FF4C0610448FFF7C7FE00F01FF900BF1E
:108030001BBF0300F17F0200160E002008B50DF0F3
:1080400009FABDE8084010F0ADBA704708B50D4B0D
:108050001A680C467AB901221A60FFF7F6FF21462A
:10806000094812F08FFC0DF049FA0A2012F09CFC2E
:10807000064812F0F7FCEFF3108372B600F092F8A6
:10808000FFF702FB1814002020BF03003CBF0300D1
:1080900070B50D4600210446FFF7E0FC0D4E70B9A7
:1080A000BFF35B8FE288BFF35B8F338812B21BB2E2
:1080B0009A4204D06DB901212046FFF7CFFC3388E6
:1080C000BFF35B8FE380BFF35B8FA3880133A38093
:1080D000012070BD140E00200021FFF7D9BF000061
:1080E00008B5BFF35B8FC188BFF35B8F0C4B1B8858
:1080F00009B21BB2994201D0FFF770FF8388002BB1
:10810000FAD0013B9BB2838043B9BFF35B8FC3803E
:10811000BFF35B8FBDE80840FFF7D6BC08BD00BFCA
:10812000140E00200C4B0D4A10B540219A600C4CE7
:10813000E02283F82220D9770022A0180132302AC9
:1081400080F80013F9D11A6942F010021A615A69D5
:1081500042F400725A6110BD00ED00E000700200B0
:1081600000E100E0064BD3F8942042F00502C3F88A
:1081700094205A6A42F480325A620020704700BF4D
:1081800000ED00E0064B21F01F0142F00102C3F8B0
:108190009800C3F89C100020C3F8A020704700BFCF
:1081A00000ED00E008B5EFF30581C1F3080119B156
:1081B0000548103912F0E6FB044BD3F8F030DB072A
:1081C00000D500BE08BD00BF49BF030000ED00E0C0
:1081D0001A4422F0030210B54FF0773442F8044CF1
:1081E000540758BF4FF08834A2F104035CBF42F833
:1081F000084CA2F108034FF0807243E902020D4AD5
:1082000043F80C2C0020032243E9052043F8201CEE
:1082100001220224194643E907246FF0020241F8C3
:10822000242D0B2241F8042D013A032AFAD1A3F19F
:10823000440010BDAD7C0200054B064A0648196893
:10824000914201D1834201D3C01A70470433F6E74B
:1082500000000020FEE7FEE700020020EFF30880A8
:108260007047000000487047000000200023E1EE46
:10827000103AEFF3148323F0040383F31488BFF35D
:108280006F8FEFF3108362B6024B4FF080525A604B
:10829000BFF36F8F00ED00E0114910B50C6872B6A6
:1082A000FFF76EFC62B6A04208BF10BD2146BDE8D4
:1082B000104049B1EFF309821EF0100F08BF22ED04
:1082C000108A22E9F04F0A600068B0E8F04F1EF013
:1082D000100F08BFB0EC108A80F3098870470000C7
:1082E000880D0020024B4FF080525A60704700BF4B
:1082F00000ED00E030BF62B6BFF36F8F72B670471B
:108300000D4B0E4A0E496846904203D8984201D957
:10831000002102E009468D460121042072460242F6
:1083200002D1EFF3088001E0EFF309802DE9F00FAF
:108330006B4600F087F800BF5801002000000420C1
:108340000002002008B502490620FFF77FFE00BFAB
:1083500058BF030008B502490520FFF777FE00BFAC
:1083600064BF030008B502490820FFF76FFE00BF95
:1083700077BF030008B502490920FFF767FE00BF79
:1083800089BF030008B502490A20FFF75FFE00BF5E
:108390009DBF030008B502490B20FFF757FE00BF41
:1083A000AFBF0300704770471C4AD2F8883043F4CF
:1083B000700310B5C2F88830FFF7F4FF6A46184B17
:1083C0001848194693421DD3174B184A1848834240
:1083D0001BD3184B184A002093421BD321B1174AD4
:1083E00017490120FFF7CEFEFFF7BCFEFFF7DBFFCA
:1083F00000F03AF9FFF746F912F0BEFBBDE8104075
:10840000FFF702BE43F8040BDCE752F8044B43F8D5
:10841000044BDCE743F8040BDEE700BF00ED00E0AF
:1084200000000020FEE7FEE70002002050F60300F7
:10843000EC020020F0020020485800200800061638
:108440001F0000202DE9F04F9A46564B8FB09346FF
:108450009A6B03925A6B0492D3F82880DA6A0592D9
:108460001A6BDB6B0793504B06921A684F4B9A427C
:1084700004460E4602D04E4812F0F4FA002E62D0A6
:108480004C4812F0EFFA4C4B4C48198809B212F0E4
:1084900079FA00252F464A4812F0E4FA4146494845
:1084A00012F070FA0599484812F06CFA069947489C
:1084B00012F068FA0799464812F064FA18F4004F6F
:1084C00003D00399434812F05DFA18F0800F03D0EF
:1084D0000499414812F056FA404812F0C3FA404855
:1084E000594612F04FFA002E29D11BF0080F53D035
:1084F000314B1E8836B23046FFF7F8FB3146024654
:10850000384812F03FFA384812F0ACFA394637488A
:1085100012F038FA6946364BC91A03D53548494234
:1085200012F030FA20468268C36801698C464169BE
:108530008E46AD46514691E8F00F416800682E49DD
:108540000720FFF783FDD4E90230D4E90679D4E9A6
:10855000001208902069099060690A9019F4007F60
:1085600026480B91CDE90C230CBF04F1200504F142
:10857000240512F077FA089B0B9900932048DDE957
:108580000C2312F0FFF9DDE90912CDF800903B460B
:108590001C4812F0F7F97EE7217F1B48103912F0D2
:1085A000F1F9B0E700ED00E000000020FEE7FEE793
:1085B000BDBF0300D3BF0300140E002002C00300A0
:1085C000ACC00300B5C00300C5C00300D5C00300A4
:1085D000E5C00300F5C0030005C1030015C1030099
:1085E0001AC103002CC103006BC103009CC103002E
:1085F00058010020C4C10300F1C1030016C00300EC
:1086000031C003006EC0030045C10300BFF34F8FAC
:108610000549064BCA6802F4E0621343CB60BFF31E
:108620004F8F00BFFDE700BF00ED00E00400FA053A
:108630004FF0704393F8E02F062A12D1D3F8E40FDD
:1086400010F00F000DD1D3F8E82F02F0F002302A1D
:1086500008D1D3F8EC0F00F0F000B0FA80F0400938
:10866000704700207047000008B5FFF7E1FF30B108
:10867000134AD2F8FC3023F08073C2F8FC30FFF7C5
:10868000D7FF20B14FF080430322C3F8A025FFF7A6
:10869000CFFF30B14FF080430022C3F80C21C3F864
:1086A000102100F057F8074B0122C3F84025FFF7CF
:1086B00039FDFFF7C3FCBDE808400CF0BFBE00BFAA
:1086C00000ED00E000E00140044B1B682BB1044BBF
:1086D0004FF080525A60BFF36F8F7047840D0020B7
:1086E00000ED00E008B5044A044B10681B68984789
:1086F000BDE80840FFF7E8BF1C1400202C14002040
:1087000008B5044A044B50685B689847BDE80840C8
:10871000FFF7DABF1C1400202C14002008B5044A0F
:10872000044B90689B689847BDE80840FFF7CCBFB2
:108730001C1400202C14002008B5044A044BD068F7
:10874000DB689847BDE80840FFF7BEBF1C14002057
:108750002C14002070470000EFF3108172B6094A14
:1087600013680133012B136009D14FF080420020C0
:10877000C2F800011360D2F80031002BFBD081F366
:108780001088704740140020094A08B513680BB9D7
:10879000FFF724FCEFF3108172B61368013B1360FE
:1087A0001BB94FF0804301225A6081F3108808BD45
:1087B00040140020084A107868B94FF08043012126
:1087C000C3F81815C3F804019960D3F804110029FF
:1087D000FBD00123137070473C1400200BF031B81C
:1087E0000346006838B10268904219BF13680360FD
:1087F000002119601046704708B500B109B9FFF7AC
:10880000EDFB4B68002BFAD0EFF3108272B60B68C9
:1088100033B903686BB11B680B60036819600160B2
:10882000406882F3108830B1BDE808400121FFF7AD
:1088300099BB0960F3E708BD10B5EFF3108472B679
:10884000FFF7CEFF84F3108808B10023036010BD4A
:1088500038B58569044685B10A4B18684369013308
:108860000CD011F0ADF923696A68C11A8A4226BF9B
:108870009B181B1A00236B60206138BD83685B68FE
:108880009847F0E750F403008369084A10B504469E
:1088900010682BB15A68214611F0E8F9206110BD2B
:1088A0002146BDE8104011F0C8B900BF50F40300E4
:1088B0008369002210B504465A60A06930B143684C
:1088C00023B90368A36163699847F6E72046BDE8CA
:1088D0001040FFF7D9BF000070B505460C46EFF316
:1088E000108672B6FFF7B4FF05F118000368BBB934
:1088F00023600460AB69A34206D10F4B626818681D
:10890000294611F0B3F9286186F310880B4B1B68D8
:108910002BB10B4B4FF080525A60BFF36F8F70BD7D
:1089200061685A68914203D3891A61601846DDE78D
:10893000521A23605A60DCE750F40300840D0020D3
:1089400000ED00E070B504460D46EFF3108672B6F8
:10895000FFF77EFFA36904F118022BB92046FFF749
:1089600093FF86F3108870BD13689D4202D01A46AB
:108970001B68F2E72B681360002BEFD05A68696818
:108980000A445A60EAE70000034B4161C0E9023043
:1089900000238361704700BFB188020058B103789B
:1089A00043B1013810F8013F0BB901207047303B4B
:1089B000092BF7D90020704738B1054B0A0901F09F
:1089C0000F019A5C5B5C027043700220704700BF2D
:1089D000E4EF0300F8B50D465700064610B18C18B9
:1089E000A54201D13846F8BD304615F8011BFFF706
:1089F000E3FF0236F4E7F8B50E465700054610B11E
:108A00008C18B44201D13846F8BD284614F8011D2F
:108A1000FFF7D2FF0235F4E703461A460133117817
:108A20000029FAD1101A704707B5042201910DEB05
:108A30000201FFF7E0FF03B05DF804FB0E4A91422C
:108A400030B5034616D80A22012014468A420ED9B0
:108A500063B103440A25B1FBF5F405FB141230326F
:108A600003F8012D0A46092A2146F4D830BD624395
:108A70000130EBE70A20EBE7FFC99A3BFFF7DEBFC7
:108A800038B5064B1B6804460D46986811F02EFD5C
:108A900029462046BDE838400FF09ABD98020020D4
:108AA00007B5014601A8FFF787FF022101A8FFF7DC
:108AB000E7FF03B05DF804FB07B501466846FFF722
:108AC000B3FF08216846FFF7DBFF03B05DF804FB46
:108AD00010B50446FFF7A0FF01462046BDE8104050
:108AE000FFF7CEBFD8B1E1B1002340EA0102D207BF
:108AF00009D5C2070BD5CA070BD581420BD2421A42
:108B000008461146F7E7400849080133EDE74008F9
:108B1000EFE74908EFE7091AEDD100FA03F108463B
:108B200070470146FBE72DE9F84306460D4614461B
:108B30000AB9FFF753FA11462846FFF7D3FFA042C0
:108B4000F7D8A84239D8B5FBF0F1B4FBF0F2002514
:108B5000B1FA81F44FF0004EC4F120002EFA04FE69
:108B6000C4F15F0C2B462C462F46DB1847EB070859
:108B700011EA0E0F18BF43F00103934278F1000988
:108B800047464FEA44044FEA5E0E0FD39B1A68F142
:108B9000000744F00104002C0BDA3B4300D0013401
:108BA000C0F1200333713460BDE8F883002CF2D1AA
:108BB000013801356545D8D1EFE700200446EFE7DD
:108BC000F8B5048906460F46154600200DB1B5429A
:108BD00018D13289716800230AF0B6FA04F13A0319
:108BE0000344B3F5803F24BF013080B2796820444C
:108BF0003A3000232022083180B20AF0A5FAC0439F
:108C000080B2F8BD23462A8969680AF09DFAAB68EC
:108C10002D6823449CB2D9E72DE9F8430E468146DE
:108C20000321304605F046FF044608B9FFF7D6F9A0
:108C3000022105F03FFF07460028F7D0A368032B69
:108C400005D830460021BDE8F84305F03BBF01469A
:108C500032462046D4F80480FFF7B2FF0028F0D156
:108C600098F80050892D0FD8842D11D8802D16D05A
:108C700098F80010334640F20122032004F064FA11
:108C80000028DED0BDE8F8836335EDB2012DEFD8C2
:108C9000A36879684246484602F07CFEE8E72389EB
:108CA00079684246484600F051F8E1E738B50D468C
:108CB000144600211A46032306F05EF828B14368E3
:108CC00000221D705C709A70DA7038BD10B50446D1
:108CD00060B190F90C30032B0BD10268FFF770FFE5
:108CE00050B1636840BA5880002010BD6FF00D008D
:108CF000FBE76FF04C00F8E76FF00100F5E7426921
:108D0000013201D010F05CBF83685B6818472DE921
:108D1000F041DDF81880154600220E461F46014638
:108D200008F108031046FFF7C1FF044650B1406840
:108D300076BA6DBA8680C58027B14246394608307A
:108D400011F053FF2046BDE8F081000073B50646E0
:108D50000C46002A3ED0072B3CD99188D088083B8E
:108D600040BA49BA009389B202F1080382B2812065
:108D7000FFF7CDFF054668B3237EFF2B04F1080201
:108D800014BF04F11801002100F0ECFD044610B9F5
:108D90000146284609E000231A461946184605F000
:108DA0000BFB054630B90146204602B0BDE87040D5
:108DB00005F088BE43680EB1B6F9FA615E800649D7
:108DC0002C602B4640F20222022004F0BDF901463D
:108DD0000028DED002B070BD0000FFFFF7B5099D8E
:108DE0000C4611461A464FF6FB739D4207464AD879
:108DF000009500238020FFF78AFF002846D02246F6
:108E00000021466800F0AEFD044630B9214811F05B
:108E100029FE0025284603B0F0BD43689DF82020B8
:108E2000DA7167B100231A461946184605F0C4FAEC
:108E300030B34368B7F8FA215A8004600446164BF1
:108E40001868FFF75CFF032D89BFB0600836043D4A
:108E50000C360023AB42DAB20FD11049234640F260
:108E60000222022004F070F90028D2D16FF0080528
:108E70000021204605F026FECCE7F2540133E9E755
:108E80006FF00B05F4E76FF01505C3E76FF00B0506
:108E9000C0E700BF04C2030054F403000000FFFF5A
:108EA0002DE9F0471F46224B0546186816460C462A
:108EB000FFF725FF02218146284605F0FBFD03212F
:108EC0008246284605F0F6FD8046BAF1000F2BD009
:108ED00050B3DAF80400083003F066FCD8F8041048
:108EE000032C01F1080C1CD98B68043CA9EB03028C
:108EF0000C310B190C469C4202D14FF0FF310AE0B5
:108F00000134601A013814F801ECC0B28645F2D081
:108F1000A4EB0C0101393B462846B446BDE8F047B6
:108F2000604761460022E4E76FF01500BDE8F08776
:108F300054F40300F8B50D460221164605F0BAFDBB
:108F4000044608B9FFF74AF847680C49102207F1B0
:108F5000080011F08FFD70B13B7AFF2B0BD03B7EE8
:108F6000FF2B06D1022D04D0042D04D1022E18BFF0
:108F700000242046F8BD0024FBE700BF9EF003005C
:108F800010B50B4608241B6833B193F90C2001324D
:108F900002D09A681444F6E78268A24209D98B6825
:108FA00040684968121B9A4228BF1A46204411F0B3
:108FB0001CFE204610BD70B54FF0FF31054605F090
:108FC00079FD002406462DB93034AEB173682BB953
:108FD000FFF704F8AB682D681C44F4E7B3F902000E
:108FE00004F0F0FA0028F3D0B0F82A31B268283B38
:108FF000A41A9C4228BF1C46204670BDF8B5054601
:1090000010460F4614461E46FFF7D5FF2946034675
:109010003A460020FFF74AFE0546F8B1436836BAE3
:109020005E6094F90C305A1C12D0022B05D12368D3
:109030007BB193F90C3001330BD17CB194F90C3036
:1090400001330BD021462846FFF79AFF2468F4E746
:109050002468082614B1AA68B24201D82846F8BD8F
:10906000A36868686168921B9A4228BF1A46304418
:1090700011F0BBFDA36824681E44EBE770B50546FC
:1090800014460846BDB34FF0FF3105F013FD62688A
:10909000064608320021284600F064FC044628B940
:1090A00001462846BDE8704005F00CBDCEB173689E
:1090B0000BB9FEF793FFB3F9020004F083FA002323
:1090C000194605461A46184605F076F9014608B9CC
:1090D0002046E7E743680DB1B5F9FA515D800C60B1
:1090E0000C460549234640F20222022004F02CF8E7
:1090F00001460028ECD070BD0000FFFF70B50C46A3
:109100000246064601212046FFF714FF054658B1E6
:109110002246314600230120FFF770FF2A462146F0
:10912000BDE87040FFF7AABF70BD70B50C4606469B
:10913000002202212046FFF7FDFE054658B12246D7
:10914000334600210220FFF759FF2A462146BDE899
:109150007040FFF793BF70BD70B50C4602460646DF
:1091600003212046FFF7E6FE054658B12246314668
:1091700000230320FFF742FF2A462146BDE8704046
:10918000FFF77CBF70BD2DE9F04716460446024646
:109190000F4630460421FFF7CDFE804680B33046AF
:1091A000FFF709FF2246034604210020FFF77EFD5A
:1091B0000546F0B1D0F8049034464FF0000AA4B14F
:1091C00094F90C30013310D021462846FFF7D8FE21
:1091D00063689F4207D3A2681A4497423EBFFB1AB6
:1091E000083B03EB000A2468E9E79AFA8AFAC9F80F
:1091F00004A0424631462846BDE8F047FFF73EBF8F
:10920000BDE8F087002105F05DBC000008B5044909
:10921000102211F02FFCB0FA80F0400908BD00BF09
:109220008EF0030010B50A490822044611F022FC12
:1092300048B12378FF2B08D1607800F00F00831E1F
:109240005842584110BD0120FCE70020FAE700BF5A
:109250007EF003002DE9F8430E46D1E900140546DF
:109260000A4600232ABB5BBAA380A379FF2B02D155
:1092700019BB3B23A371E37913B94DBB4023E371C1
:1092800004F108073F491022384611F0F3FB04F1BE
:109290001809804678BB4846FFF7B8FF0246D0B1B0
:1092A00010224146384611F00EFC0123E375344686
:1092B00050E0906812680344D4E70B7B023BDBB2BA
:1092C000022BD6D8304AD35CA371FF2BD3D1D0E781
:1092D00095F8F831D3E74946284604F04AFB03469F
:1092E0000028E4D000F1100253F8041B47F8041BD7
:1092F0009342F9D1DBE7284604F06FF94846FFF7BF
:1093000085FF98B10024284604F06EF9002CCED0D9
:109310000321304605F0CEFB28B143681B7803F0EB
:10932000FD03852BC3D06FF07C0023E0394628462F
:1093300004F0F8FA0028E5DB284490F8304004F007
:109340001F04103C18BF0124DDE705F031FD98B182
:109350002060044694F90C30022B02D120680028CA
:10936000F3D13146204605F094FB002807DA831C30
:1093700008BF0020BDE8F8836FF00B00FAE700207B
:10938000F8E700BF9EF00300F4EF030010B50C46B1
:109390000AB9012010BDFFF75DFF0028F9D0204673
:1093A000FFF730FF0020F5E738B50B680D4604469F
:1093B00008B9FEF713FE4A68B0F8FA11518000228E
:1093C00063B9B4F82A0190420CD22946FFF7ADFEEA
:1093D00028467A21BDE8384005F074BB99681B68BF
:1093E0000A44EDE7EFF3108172B6D4F8AC200132F5
:1093F000C4F8AC202A68BAB9D4F8B4201A44C4F826
:10940000B42081F31088204604F0C2F880B10D49E1
:109410002B4640F20222012003F096FE88B928462E
:10942000BDE83840FFF7EEBE906812680344E2E7FB
:10943000B4F9FA0140F20222294603F07AFE00282C
:10944000EDDD38BD0000FFFF002370B505460C467A
:1094500042F0400619461A46184604F0ADFF014690
:1094600020B92846BDE87040FFF7CCBE43681E71A6
:109470000560EFF3108272B6D4F8A8300133C4F857
:10948000A83082F310882046BDE87040FFF78CBFFB
:109490002DE9F04390F90C30013389B00646884637
:1094A00024D144680CB9FEF799FDB4F9020004F028
:1094B00089F805463046277905F07AFC07F03F0722
:1094C000014628B9304609B0BDE8F043FFF79ABE1F
:1094D00005F022FB064696F90C30022B09D0162126
:1094E000304609B0BDE8F04305F0ECBA00273D4630
:1094F000F1E7706855491022183011F0BBFA0028C6
:10950000EDD0304605F054FC04460028DAD043681C
:109510001A7EFF2A3AD125B904F047F878B92046D7
:10952000D1E7014642462846FFF730FF80B13A4670
:109530002946204609B0BDE8F043FFF785BF411E2C
:10954000204605F08DFB284604F02DF8054610B99D
:1095500009B0BDE8F083B8F1000F10D0204605F047
:1095600027FC06460028DAD001462846FFF772FE9F
:1095700030B1B442D3D03046FFF744FECFE72646A1
:109580003A4629463046FFF75FFFDCE703F118094A
:10959000484604F0C9FA8542064605D04846FFF71A
:1095A00041FE002818BF00264846FFF72FFE00B9ED
:1095B000AEB1424621463046FFF7E8FE0028C7D04C
:1095C000204605F0C1FA0028A9D12149234640F2DE
:1095D0000122022003F0B8FD0028B9D19FE701ABBA
:1095E00022462946484602F0E7F80028B0DBBDF8DD
:1095F0001C00C0F3041003F0E5FF054600283FF40B
:1096000052AF42462146FFF7C1FE0028A0D03146A6
:109610009DF81E3005AA304604F0CEFE014618B96A
:109620002046FFF7EFFD93E743681F710460EFF3F7
:10963000108272B6D5F8A4300133C5F8A43082F395
:1096400010882846FFF7B0FE82E700BF9EF00300B7
:109650000000FFFF2DE9804889B000230593A3F5A2
:1096600080330693AD4BAE481B88ADF81C30082103
:10967000FEF7E4F905A9022005F08AF9DFF8A8A2AF
:1096800040F20523ADF80E3040F2022901A8FEF7A2
:10969000BEF9BDF80610B1F5017F0BD8494500F2BF
:1096A0002C8140F20123994219D04945EED102980C
:1096B000012119E1A1F59F43403B9BB2152BE5D851
:1096C00001229A4012EA0A0240F01F81152B00F095
:1096D0002081142BDAD1029801F0B6FFD6E7029E62
:1096E0000EB9FEF77BFC4FF0FF31304605F0E2F992
:1096F000804680B34368002BF3D0B3F9020003F037
:1097000061FF05460028ECD0EFF3108072B6D5F863
:10971000B8300133C5F8B8300022334699681B6869
:109720000A44002BFAD1D5F8BC30D8F808105B1ADF
:109730001344C5F8BC3080F3108873683BB1B2683D
:10974000272A04D91B7803F0F003602B05D030469C
:10975000FFF758FD9AE70546EFE7304605F028FB8E
:1097600004460028F3D00222282105F043FB002301
:109770002373034608B92046EAE74768F87920B919
:109780002146FFF7E9FC742177E0B988BE798AB2F7
:1097900049BA89B20AB93B2EEDD19C42A26859D090
:1097A000914256D2204605F08FFB07F1180B584620
:1097B000FFF72CFD70B95846FFF734FD08B1002DB6
:1097C0005FD1584604F0B0F90546B0FA80F0400980
:1097D00000285CD1292E00F08A803A2E00F0898082
:1097E000A6F11102534253419B00237331460220DC
:1097F00005F037F9002801DC3A2E7CD10121204602
:1098000005F02EFA0127474994F90C00234640F24F
:10981000012203F099FC10B92046FFF7F3FC87B151
:109820003A2E03D10121204605F01AFA234640F2D0
:1098300001223146022003F087FC10B92046FFF7D1
:10984000E1FC3A2E7FF422AF21462846FFF7E4F9E7
:109850001CE7234600229868024493F90C00022872
:1098600002D01B68002BF6D1283A91429DD9391DB0
:1098700022460020FFF787FC1621204605F022F93A
:1098800004E7584604F050F9B0FA80F09FE707F17A
:109890000800FFF7C7FC05465846FFF7C3FC3DB973
:1098A00068B13B7EFF2B3FF466AF2146032003E007
:1098B0000028F6D121460220FFF720FC5BE7FB7968
:1098C000013BDBB2FB71002B3FF45AAFB8F1000F44
:1098D00003D04146204605F01FF9204605F057F910
:1098E00000283FF4D3AE0021FFF7D2FDCEE60223DD
:1098F0007BE7032379E7002785E76FF0850303A95A
:1099000001A80493FEF75AF8C0E6029802F0ACFCF6
:10991000BCE60298114601F0D9FEB7E6140E00200D
:10992000481400200000FFFFEFFB06001FB5094CA4
:10993000B4F9000060B9084BCDE90103074B00936F
:10994000042203464FF470710548FEF735FA208073
:1099500004B010BD441400201EC20300559602003E
:1099600088140020F8B50C4617460223282200214F
:1099700005F002FA064608B3456805F10800FCB197
:10998000214604F1100351F8042B40F8042B9942AE
:10999000F9D105F11800C7B1394607F1100351F8A4
:1099A000042B40F8042B9942F9D1602200232A703D
:1099B000FF226B70AB70EB70AA71EB713046F8BD93
:1099C0001022214611F07FF8E3E71022394611F00A
:1099D0007AF8012385F82730E7E70000F8B5044658
:1099E00015460E4609B90020F8BDD1F82C71FA04CD
:1099F000F9D51949082211F03DF838B12378FF2B29
:109A0000F1D1637803F00F03022BECD1FB0701D4F3
:109A1000FEF7E4FA96F8F90105F1100204F10801E5
:109A200009F02AFE10F0FF00DDD0A8762B4604F1E5
:109A3000100254F8041B43F8041B9442F9D1B6F801
:109A4000FA311B0103F4F87343F4806343F0060317
:109A50002B830120C8E700BF7EF003002DE9F84307
:109A6000064604F061F80446002861D003F0B5FD15
:109A7000B4F9FA11002000F093FF054670B10068B8
:109A800000F028FD50B12B68B4F9FA11B3F8642046
:109A9000C2F3041291420CD0FEF7A0FA002384F81E
:109AA0002731204602F096FB2046BDE8F84303F03C
:109AB0009BBD043318463246214600F06BFA31460E
:109AC000204603F02FFF0028E6DB211891F8303004
:109AD00003F01F02102A28D003F00702013A012ADE
:109AE000E2D80133D4F8208181F83030050105F146
:109AF000F406104B1048B3F9009026443146FEF7A7
:109B000021FF05F1320760190023C0E93D382744E1
:109B100044F6CF73A0F8FE30C0F80071A0F8FC90B6
:109B200031460548FEF7D8FEBEE74EF66028DDE771
:109B3000BDE8F88344140020481800202DE9F347BD
:109B40000D46DDE90AE81F46044608B9FEF746FA65
:109B5000D0F82C6116F4805F03D1042002B0BDE878
:109B6000F08793F80190B9F1020FF6D192F800C096
:109B7000BCF1880F40F08480F607EED590F85421B0
:109B80006B4600F5A67104F089FB0828E5D1DDE9F4
:109B90000002B968FB689A4208BF8842DDD1BB78F1
:109BA000012B48D0022B4CD0002B42D105F11801DB
:109BB0002046FE8803F0B6FE00281FFA86F8CCDBAC
:109BC000B8F5807F18BF76BA04EB00021EBFB6B2AC
:109BD0004EF660235E4392F830304FEA001523F0D2
:109BE0001F0343F0100305F1F40882F83030A0445D
:109BF0002A4B2B48B3F900A018BFA6F56A46414688
:109C000014BF603E47F2305605F13209FEF79AFE66
:109C100060190023C0E93D36A14444F6CF73A0F893
:109C2000FE30C0F80091A0F8FCA041461C48FEF7A9
:109C300053FEB87892E705F11801204604F004F9C4
:109C4000F7E7B4F9FA1105F1080000F0A9FE06469D
:109C500000283FF47BAF00F06BFE002000F08AFE8E
:109C600028B984F82701204602F0B4FAE1E7336806
:109C7000002B3FF46BAF05F11800FFF7EFFED8E7BC
:109C8000B4077FF56AAFBCF1870F7FF466AFCDE90B
:109C90000AE802B0BDE8F04700F088B8441400209C
:109CA00048180020F8B54378032B054602D000245D
:109CB0002046F8BD083001F0A9F804460028F6D087
:109CC0006B88AA88ED885BBA52BA9BB243EA02431A
:109CD000AAB23AB36DBAADB24EF6602255432269CC
:109CE0009A4209D32361134B1868436901331CD08E
:109CF0000FF066FF284460610F4B1048B3F9007005
:109D000004F118063146FEF71DFE0023C4E90635AE
:109D100044F6CB7309486384646227843146FEF7B6
:109D2000DBFDC5E742F21075D6E783685B689847AC
:109D3000E0E700BF50F4030044140020481800205E
:109D4000F7B515468A784878412A34BF02230323A1
:109D5000984227D1CC88CB78A7B264BA03F00F061B
:109D6000A4B2C3F30013009308312346304606F033
:109D7000D3FF0DB9FEF732F9F108F64306F00706F6
:109D8000012305F12902B340505CDBB247B920EA58
:109D9000030353544EF6602303FB04F003B0F0BDFD
:109DA0000343F6E74FF0FF30F8E700002DE9F047F6
:109DB00001F1080906460F469046474910224846D9
:109DC000DDE908A41D4610F055FE00287FD0BAF149
:109DD000000F7CD05CB194F86630DA0707D5082212
:109DE000A91804F1140010F045FE002869D1EB8891
:109DF000002B61D0534642463946304600F0F0F918
:109E0000B6F9FA11484600F017FC0446002860D065
:109E100000F1140705F1080808224146384610F001
:109E200029FE38B1B4F8643003F4C06313B10120E3
:109E3000BDE8F087AB686361D8F804307B60ED88DB
:109E4000264B2748B3F9008004F154073946FEF742
:109E500079FD6DBA00236365ADB24EF660235D43B4
:109E600044F6C973A4F85E301D48A5652466A4F8BD
:109E70005C803946FEF730FDB4F864206FF0410392
:109E800002F007021341DB070CD50EB9FEF7A6F866
:109E9000134804F12401FEF755FD03222146304604
:109EA00000F084F9B4F8643023F4C06343F48063B1
:109EB000A4F864300020BBE74CB1204600F016FC4B
:109EC000F8E7B4F8643003F4C063002BAFD104208A
:109ED000AEE70220ACE700BF9EF003004414002070
:109EE0004818002073B5069E1C460BB9FEF776F89D
:109EF0000025CDE90065FFF721FEC31EDBB2012B73
:109F00000AD9E18849BA2B4604F1080289B202B0A5
:109F1000BDE8704008F05BBB284602B070BD000091
:109F20002DE9F0411F460B4B144605460E460A48E4
:109F3000B3F900801146FEF705FD0023C4E90037A0
:109F40006681E560A4F8088021460348BDE8F04139
:109F5000FEF7C2BC441400204818002038B515464E
:109F600004461A4691B190F86830934204D0023109
:109F70001C3010F07FFD58B9B4F86410B5F9FA310F
:109F8000C1F30411C81A18BF012038BD0846FCE708
:109F90000120FAE7F0B5074685B015461E460C4687
:109FA00009B9FEF71BF8B1F9FA11002000F0F8FC2E
:109FB0004DB3D4F82C31DA0425D520B30068B4F9B8
:109FC000FA21B0F86430C3F304139A421BD131462E
:109FD000043009F0DCF8B0B1D4F82C31DB0710D52F
:109FE00094F8542102AB04F5A671204604F056F90A
:109FF000082806D1002302AA0F21184608F0E7FA24
:10A0000010B905B0F0BD0020009033462A46214625
:10A01000384602F0B5FEF4E770B50446B0F86400C7
:10A02000C0F304100E4603F0CDFA054608B9FDF75B
:10A03000D5FF03F0D2FA16B1002384F86730231D50
:10A04000184600222946FFF7A5FFD5F8203104F174
:10A05000240244F6C0712046FFF762FF284603F051
:10A06000C3FA94F86730013384F8673070BD2DE986
:10A07000F043B0F8643013F0070585B00446884615
:10A0800079D06A1E012A71D8C3F3041003F09AFA3A
:10A0900044F6C1710746204600F0C0FF81460FB963
:10A0A000FDF79CFF384603F098FAD7F82061B145D8
:10A0B00056D9B8F1000F02D0002384F86730012D83
:10A0C00028D194F8673040F2DC51023B4FF4FA702B
:10A0D0004FFA83F95FFA83F80BF0AEFAA0F5FA7342
:10A0E000B3F57A7F8446DBD2B8F1110FD8D805FAE0
:10A0F00009F5A5FB0656A5FB000100230CFB061184
:10A100004FF47A720FF00CFF4EF66023984228BF8E
:10A110001846064640F2FF220023CDE900234FF007
:10A1200080730293FF238DF80C30637C8DF80D3023
:10A13000638AADF80E3000226B463946201DFFF7CA
:10A1400029FF334604F1240244F6C1712046FFF78B
:10A15000E7FE94F86730122B9CBF013384F8673018
:10A16000384605B0BDE8F04303F03EBA05B0BDE89F
:10A17000F043FFF751BF05B0BDE8F08310B50446CA
:10A18000D0F8E80000EB500140080BF055FA04F15C
:10A19000A402C4F8EC00044B204644F6CE71BDE89E
:10A1A0001040FFF7BDBE00BF00DD6D00B1F86430A8
:10A1B00023F00703134370B50446A1F864300D463D
:10A1C000164603F00AFA34B1D4F8C0301BB1324657
:10A1D000291D032098472046BDE8704003F004BACB
:10A1E0002DE9F84391469846054608B9FDF7F6FE75
:10A1F00001F10807B0F9FA11384600F01DFA0446DB
:10A2000028B190F8663013F0010F08BF0024D5F88C
:10A210002C31DA07EAD595F8F901414609F042FAFE
:10A22000061E09DB54B9B5F9FA110322384600F0CD
:10A230009BFA0446002842D1BDE8F88394F86830C0
:10A24000B34207D1324608F1020104F11C0010F0BC
:10A2500011FC98B1D5F82C2141F20203934303D1AC
:10A2600099F80030852B09D01E4804F12401FEF72F
:10A2700069FB032221462846FFF798FF94F86630D1
:10A28000DB07D9D599F80030862B23D1B4F86420A8
:10A2900042F00802A4F86420D5F82C1141F2020221
:10A2A0008A4301D1852BC7D084F86860324608F113
:10A2B000020104F11C00BDE8F84310F096BC99F8C7
:10A2C0000030872B02BFB0F8643023F00803A0F8F9
:10A2D0006430D3E7872BDFD0B4F8642022F0080283
:10A2E000D8E700BF4818002038B50446B0F864002D
:10A2F00000F00703042B12D0062B12D10325C0F364
:10A30000041003F05FF92A462146FFF74FFF052DA1
:10A3100007D120460121BDE83840FFF7A8BE05253A
:10A32000EDE738BD70B505460C460622FFF73EFF47
:10A33000D5F81C3104F12402204644F6C771BDE86B
:10A340007040FFF7EDBD00002DE9F04705461746C8
:10A350001E460C4609B9FDF741FE0028FBD06BB143
:10A36000D0F82C31D907F6D590F8F901314609F02B
:10A3700099F9B0F1000802DABDE8F0879846B4F820
:10A38000649009F00709B9F1020F0FD097F800A007
:10A39000BAF1880F02D13B799A0607D443462A4680
:10A3A00031462046FFF7DAFD002851D0002E47D075
:10A3B00084F868804246B11C04F11C0010F015FCC2
:10A3C0003B78882B02D13B795B063CD4284804F1CA
:10A3D0002401FEF7B7FA032221462846FFF7E6FEDE
:10A3E0003B78882BC8D13A79900602D4B9F1020F94
:10A3F0000AD1B4F8643011065ABF23F008039BB2A7
:10A4000043F00803A4F864305206B5D4B4F86430BD
:10A4100003F00703062BAFD143462A4631462046B8
:10A42000FFF79CFD0028A7D004F124011048FEF797
:10A4300089FA214628460322BDE8F047FFF7B6BE59
:10A4400084F86860BCE721462846FFF76BFFC7E742
:10A45000BAF1880F90D1B9F1000F8DD03B795B062E
:10A460008AD521462846BDE8F047FFF75BBF00BF0D
:10A47000481800200122FFF799BEB0F8642002F0CE
:10A480000703022B10B5044604D0052B0AD0012B7C
:10A4900013D010BD90F86730022B15D9BDE81040DD
:10A4A00000F024B990F86730022B06D9C2F30410EB
:10A4B00003F088F82146FFF7DDFFB4F8643013F4A9
:10A4C000C06F01D01B07E4D520460021BDE8104035
:10A4D000FFF7CDBDB0F8640000F007000138012897
:10A4E00094BF002001207047CB08C943C05C01F035
:10A4F000070101238B401840003818BF0120704726
:10A5000030F9081FFDF7FEB908B50449102210F014
:10A51000B1FAB0FA80F0400908BD00BF9EF0030018
:10A52000054A106838B10368984219BF1A6802607A
:10A5300000211160184670475C1C002090F86610DE
:10A5400011B96C2210F0BFBA704770B504461046BE
:10A550000E461546FFF7F2FF4CB123462A1D04F1C3
:10A56000100153F8040B42F8040B8B42F9D11F2E53
:10A5700001D9FDF733FDB5F8643023F4F87343EAED
:10A580000611A5F8641070BD01490248FEF7FCB938
:10A5900001A50200481800200148FDF79DBD00BF3D
:10A5A000641800200148FDF79BBD00BF641800201F
:10A5B0002DE9F041154C06460F4604F5D8780025E4
:10A5C000B4F86430C3F304139F420CD025B994F857
:10A5D0006630002B08BF25466C34A045F0D155B934
:10A5E0002846BDE8F081211D5EB90846FFF78CFFC3
:10A5F0000028EBD025462A4639463046FFF7A5FF0E
:10A60000EEE7304608F0C3FDF2E700BFAC1A0020C9
:10A6100028B16C30064B984203D3002070470548A0
:10A62000F8E790F86620002AF8D16C30F3E700BF15
:10A630005C1C0020AC1A00202DE9F041884607463A
:10A6400008B9FDF7CBFC114C0026254694F866307E
:10A6500043B96C36B6F5D87F04F16C04F6D100200E
:10A66000BDE8F081B4F8643013F4F87FC3F304124A
:10A6700004D0B8F1000F01D09045EAD13946201D31
:10A6800008F085FD0028E4D0A819E9E7AC1A0020FD
:10A69000F8B50446B0F86400C0F3041002F092FF6D
:10A6A000B4F86430D0F81C710E4823F0070343F06F
:10A6B0000603A4F8643004F124050B4B2946B3F9D2
:10A6C0000060FEF73FF90023C4E9093744F6C77379
:10A6D000E3852463A68529460248BDE8F840FEF7D5
:10A6E000FBB800BF481800204414002010B590F8B3
:10A6F000663023F0010380F86630044600F134012F
:10A700001748FEF71FF9164804F12401FEF71AF95D
:10A71000134804F14401FEF715F9114804F15401FE
:10A72000FEF710F90F49086820B10268944206D17B
:10A73000FFF7F6FE2046BDE81040FFF7FFBE1346C8
:10A740001268944202D09842F9D1F3E7002BF1D07D
:10A750001A6812681A600A68944208BF0B60E9E739
:10A76000481800205C1C00202DE9F8438846074665
:10A7700008B9FDF733FC02F007052B1F022BF8D9AF
:10A78000FFF716FF00283CD1FFF7CAFE814678B3D9
:10A790002A4E044694F86630012B2CD8B4F8643065
:10A7A00003F4C0633BBB2046FFF7A0FF38462246B8
:10A7B0004146FFF7CAFEB4F864302B43A4F8643076
:10A7C000012384F8663020463368B3B11B682360E8
:10A7D00033681C60346060B9FFF7A2FE814504460F
:10A7E000D8D133685BB11B6803603368186034608C
:10A7F0000020BDE8F8830020E6E72460EAE7206057
:10A80000F5E790F86630DA070AD4B0F8642022F051
:10A810000702154343F00103A0F8645080F8663046
:10A820000368002BE5D1054B1A682AB11268026053
:10A830001A6810601860DCE70060FBE75C1C002011
:10A84000F8B50C46054600B109B9FDF7C7FB0A4645
:10A85000031D00F1140153F8040B42F8040B8B4262
:10A86000F9D1B5F864701A4927830822204610F000
:10A8700001F904F1100638B12378FF2B1DD163785C
:10A8800003F00F03022B18D1C7F3041002F09AFE55
:10A890000028DAD0D0F82C31D9040ED59A070CD480
:10A8A000DB0705F10C01D0D590F8F901324608F02C
:10A8B000E3FE002801DBA076F8BD95F86820A276BB
:10A8C00005F11C013046BDE8F84010F08EB900BF1C
:10A8D0007EF00300F8B5154E346807460D469CB16E
:10A8E000B4F86430C3F3041399420BD1211D08F06E
:10A8F0004EFC38B194F8663043F0080384F86630B3
:10A900000A48F8BD0020FCE7FFF752FE024630601F
:10A910000028F7D029463846FFF717FE326892F82C
:10A92000663043F0080382F86630E9E798180020A3
:10A93000036810B504468BB1011D0C48FEF702F800
:10A94000206890F8663023F0080380F86630FFF73F
:10A95000F5FD14220021204610F0B5F8044B1A68CA
:10A96000A24204BF00221A6010BD00BF4818002098
:10A97000601C002028B11430074A904203D3002005
:10A9800070470648F8E703681BB193F86630002B60
:10A99000F6D11430F1E700BFAC1800209818002061
:10A9A00010B520B10E4B1C682CB9002010E0002916
:10A9B000F8D1FDF713FB29B1B4F86430C3F30413E5
:10A9C0009942F2D128B994F866301B07F1D50448B2
:10A9D00010BD211D08F0DBFB0028E6D0F3E700BF27
:10A9E0009818002010B5144C216879B90020FFF7A1
:10A9F000C1FFA8B921B10846FFF7BCFF014618B94D
:10AA00000020FFF7B7FF0146216007E00B68B3F8AD
:10AA1000643003F00703013B012BE7D9084610BD62
:10AA20000368B3F8643003F00703013B012BDED960
:10AA300020600146F2E700BF601C002038B50C46DC
:10AA4000054610B1036803B109B9FDF7C7FA102232
:10AA50000021204610F037F811490968002384F8D6
:10AA60002030A9422A6808D1B2F8643003F0070305
:10AA7000013B012B94BF0023012384F8213004F112
:10AA80001001131D143253F8040B41F8040B9342C8
:10AA9000F9D12B68B3F86430C3F30413638438BD71
:10AAA000601C00202DE9F84F054689461F46904658
:10AAB0003AB11046FFF728FD044610B97B1E7F2BE4
:10AAC00001D9FDF78BFADFF8E4B082469BF8342019
:10AAD000DAB9002C08BF5C460AF1010ABAF1080F86
:10AAE0000BF1400BF2D174B12168002947D14946DE
:10AAF0002846FFF75DFD0146206000283FD1402237
:10AB000020460FF0E0FF00242DE09BF8352097420F
:10AB1000E2D15846414650F8046B08F04EFB87429C
:10AB2000DAD8002ECDD0B6F86420C2F304129145D5
:10AB3000D2D104363046FFF7E7FCB8B13DB105F19C
:10AB4000100255F8041B46F8041B9542F9D1174B27
:10AB50004FEA8A1A5C4653F80A1091F8662042F0D0
:10AB6000400281F866202046BDE8F88F002DB3D062
:10AB70003146284608F00BFB0028ADD0DFE70A4637
:10AB800028464946FFF7E1FC2046FFB250F8042B67
:10AB900092F8663043F0400382F8663041463A4608
:10ABA00008F02AFB84F83570DDE700BFAC18002000
:10ABB00010B590F834300446FBB90068D0B920468F
:10ABC0004022BDE8104000210FF07DBF4033013A24
:10ABD00004D09C42FAD019688842F7D1074A9342C0
:10ABE000EDD390F8663023F0400380F86630FFF72D
:10ABF000A5FCE4E7024B0922E9E710BDAC1A0020EE
:10AC0000AC18002028B14030064B984203D30020F6
:10AC100070470548F8E790F83420002AF8D1403012
:10AC2000F3E700BFAC1A0020AC180020054B8446A7
:10AC30008342A3F500728CBF01200020624588BFCB
:10AC400000207047AC1A002038B50B4610B10268DE
:10AC500002B109B9FDF7C2F9021D00F1140452F85E
:10AC6000045B41F8045BA242F9D190F8352083F8E7
:10AC70002020002183F821100268B2F86440C4F358
:10AC800004145C8490F83400042803F1100004D10B
:10AC9000BDE8384010220FF016BF131D143253F8D0
:10ACA000041B40F8041B9342F9D138BD2DE9F0474D
:10ACB0000F469146064600B10AB9FDF78FF91F4DC0
:10ACC0000024A04605F5007A95F834305BB1314692
:10ACD000281D08F072FA804505D295F83530834278
:10ACE0009CBF80462C4640355545EDD134B194F893
:10ACF0003430042B1DD1E38EDB071AD4FFF772FE2C
:10AD000090B9B4B9204602F04EFC044618B96FF071
:10AD10007100BDE8F087D4F8C030002BF2D03A467D
:10AD2000314601209847EDE74946FFF787FE0020AE
:10AD3000EFE749462046FFF787FFF8E7AC18002009
:10AD400010B5044600F114011148FDF7FBFD94F81D
:10AD5000343023F0040384F834302046FFF728FF12
:10AD60000C4BE41AB4F5E07F10D8A4110A48214630
:10AD7000FFF7BAFB50B1094984F0070491F8283075
:10AD80000122A24023EA020381F8283010BD00BF4F
:10AD900048180020AC180020941800206C180020DF
:10ADA0002DE9F843044600F114011748FDF7CAFDE8
:10ADB0002368B3F86400C0F3041002F003FC0546F6
:10ADC000D8B100F1320604F104094946304694F83E
:10ADD000357008F0F2F905F14208874249464046CD
:10ADE00094BF94F83570002608F0E7F9874209D936
:10ADF0001EB13146284603F027F82046BDE8F84347
:10AE0000FFF79EBF4646F4E74818002038B50446D1
:10AE100008B9FDF7E3F80B4908F0B9F978B9094822
:10AE2000FFF772FB60B12346064C03F1100518686A
:10AE30005968224603C20833AB421446F7D1014891
:10AE400038BD00BF6C18002038B548B3164908F06B
:10AE50009EF938B3154D002415482146FFF744FBF1
:10AE6000D0B90134082C05F14005F5D10024254660
:10AE700010482146FFF738FB48B90134102CF7D1B0
:10AE8000BDE8384008482C2200210FF01CBEE0B27B
:10AE900005F024FF0574F0E72846FFF751FFE0E7CF
:10AEA000FDF79CF838BD00BF6C180020AC180020DE
:10AEB000941800209518002008B520B119B191F818
:10AEC00034305B0701D4FDF789F8084BC91AB1F596
:10AED000E07F09D8891190F8282081F0070101232B
:10AEE0008B40134380F8283008BD00BFAC18002009
:10AEF00038B50446084621B10D4BCB1AB3F5E07FB7
:10AF000014D80B4D2834FFF77DFE024608B91046D1
:10AF100038BD92F834305B0706D5511B89112046A5
:10AF2000FFF7E2FA0028F2D11046ECE70022EEE744
:10AF3000AC18002038B538B100F12C04074DAC42F4
:10AF400004D30024204638BD054CF7E72046FFF720
:10AF5000DBFA0028F6D02C34F1E700BF9818002067
:10AF60006C1800202DE9F8431F4613460A46014697
:10AF70000020089EFFF796FD044600283DD090F87B
:10AF80003430B74243F0040380F8343001D2FDF787
:10AF900025F807EA0605681C36D01D4B186843697A
:10AFA00001332DD00EF00CFE711C05461CD0194B40
:10AFB0001948B3F9009004F114084146FDF7C2FCAA
:10AFC0000023C4E9053644F6CC731348E3832462B6
:10AFD000A4F81C904146FDF77FFCB21C04D0731905
:10AFE000013308BF01362E44FB1C0FD87B190133F7
:10AFF00008BF01373D44C4E90E562046BDE8F8833A
:10B0000083685B689847CFE72E46F4E73D46F2E752
:10B0100050F40300441400204818002010B50A4BD7
:10B020009B690246002013B94FF0FF3010BD5C68E9
:10B0300020445C898C4204D1002AF7D0DC68944219
:10B04000F4D01B68EFE700BF48180020044B1868D5
:10B050004369013301D00EF0B3BD83685B681847C4
:10B0600050F4030073B505460E46FFF7EFFF2B685B
:10B070000446B3F86400C0F3041002F0A3FAAA6B0C
:10B08000531C1EBF4FF47A73121BB2FBF3F2EB6B2F
:10B09000591C07D09C428FBF00231B1B4FF47A71B1
:10B0A000B3FBF1F3E98E11F0010407D090F82D41C4
:10B0B000C4F3001484F00104E401E4B2890748BF3A
:10B0C00044F04004CDE90046281D95F8351001F004
:10B0D0000AFE02B070BD2DE9F341D0F82C41B0F961
:10B0E000FA6141F20203A3430D4638D100293ED054
:10B0F000002427464FF0010805EBD70393F82920D9
:10B10000FB4303F0070308FA03F31A420CD0F8B22A
:10B1100005F0E4FD034638B1428A417C007C00948E
:10B1200007F06CFA0446E8B10137102FE4D100278C
:10B1300039462846FFF7DCFE0746D0B96E69FFF7AF
:10B1400085FF311A28694EF660232A46B1FBF3F1D8
:10B15000234689B202B0BDE8F04107F074BA14F496
:10B1600080542CD00025284602B0BDE8F081FCF7C1
:10B1700035FF3B68B3F86430C3F304139E42D7D164
:10B180002146FFF76FFF04460028D1D1EAE794F883
:10B1900034305B070CD52368B3F86430C3F3041371
:10B1A0009E4205D12946FFF75DFF05460028D9D00C
:10B1B0002046FFF727FD04460028E8D1D3E72546BF
:10B1C000F6E7F7B51446D0F82C2141F20203934379
:10B1D00005460F4621D014BB2146FFF77CFF0090A7
:10B1E00023463A460021284601F000FF11E094B9B9
:10B1F00031462846FFF76FFF009023463A4600216C
:10B20000284601F0F3FE3046FFF794FE064600287C
:10B21000EDD103B0F0BD0020EEE70026F3E70020FB
:10B22000DDE738B50546B0F86400C0F3041002F05D
:10B23000C9F9044608B9FCF7D1FE02F0CEF9D4F8FA
:10B240002C315B0704D50022291D2046FFF7B9FFEA
:10B250002046BDE8384002F0C7B90000F8B5044602
:10B2600002F0BBF90CB9FCF7B9FED4F82C31DA04C2
:10B270004AD4284F284894F8266139460AF0DCF968
:10B2800044F6C67105462046FFF7C8FEFC2E01D9DC
:10B29000B84203D8D4F82C315B0735D5FC2E94BFC7
:10B2A0000022012200212046FFF78BFFFFF7CEFE90
:10B2B00094F82631C4F81401022B1AD9FC2E1DD89B
:10B2C000164B1748B3F9007004F1C4063146FDF778
:10B2D00039FB0023C4E9313544F6C6731048A4F89D
:10B2E000CE30C4F8D040A4F8CC703146FDF7F4FA63
:10B2F0000AE0B5F57A5F28BF4FF47A550133DBB227
:10B3000084F82631002BDBD12046BDE8F84002F05E
:10B310006BB900BFC027090070050300441400206A
:10B3200048180020002280F82621D0F82C2142F075
:10B330000402C0F82C21FFF791BF73B514460E46E6
:10B340000546FFF783FE0A30C4E90E0000212046BF
:10B35000FFF788FE0023009032461946284601F088
:10B3600045FE02B070BD0000F0B5044685B00E4643
:10B3700017460021102268460FF0A5FBD4F82C31A7
:10B38000D90406D4B4F9FA1124480FF0FBFA05B039
:10B39000F0BDDA07FBD594F8542102AB04F5A67191
:10B3A000204602F0F9FF0028F1DB3A4631466846B4
:10B3B00007F022FF6946204602F0B4FA051E2BDA98
:10B3C00007233A466946204602F03EFC051EDEDBB6
:10B3D0000127D4F82C31DB04D9D511490822304695
:10B3E0000FF048FB38B13378FF2B0DD1737803F0A1
:10B3F0000F03022B08D1621992F8303023F01F039B
:10B4000043F0100382F83030002FC0D004EB051059
:10B410003230FEF723FBBAE70027DAE723C2030046
:10B420007EF003002DE9F0411F460B4B1446054604
:10B430000E460A48B3F900801146FDF783FA00234F
:10B44000C4E900376681E560A4F808802146034816
:10B45000BDE8F041FDF740BA441400204818002030
:10B4600010B50A49082204460FF004FB48B12378BE
:10B47000FF2B08D1607800F00F00831E584258411E
:10B4800010BD0120FCE70020FAE700BF7EF00300BA
:10B4900008B5044910220FF0EDFAB0FA80F0400927
:10B4A00008BD00BF9EF00300002103F00BBB08B5F0
:10B4B000FFF7C2F828B190F8663013F0010F08BF0B
:10B4C000002008BD044B18684369013301D00EF019
:10B4D00077BB83685B68184750F4030038B505688C
:10B4E0005DB195F866301B0707D5FFF721FA0024F8
:10B4F0002046FFF787FB044600B938BD23689D420C
:10B50000F6D1FFF755FBF3E743074CBFC0F300301C
:10B510000120704741F2020383430CBF0120002049
:10B5200070472DE9F041069C064690461F460D46A1
:10B53000B1B191F8F9310A2B12D13B4600F110025A
:10B5400056F8041B43F8041B9642F9D1B5F8FA31BA
:10B550001B013B830023BB7601273846BDE8F08101
:10B56000E4B12046FEF7B6FFC0B1B4F8643003F092
:10B570000703032B0DD1042221462846FEF716FEB1
:10B5800041F2883304F1240244F6C8712046FFF7E3
:10B5900049FF39462046FFF753F9DDE73A46294689
:10B5A0003046FEF71BFA07460028D5D1D5F82C11F6
:10B5B00011F4805103D04046FFF776FFCDE724BB5E
:10B5C0000DB1B5F9FA1102223046FFF7CDF8044665
:10B5D0000028F0D085B90125B8F1000F07D0414609
:10B5E0000320FDF78BFD7621404603F06BFA2946D8
:10B5F0002046FEF73CFDB0E7D5F8C030002BEAD07E
:10B600000222314603209847E5E7B4F8643003F09E
:10B610000703012B04BF032384F867300025DBE711
:10B6200038B5084CFEF7B8FFA16929B10D6820466E
:10B63000FDF788F92946F8E7FEF7A6FFBDE8384090
:10B64000FEF7B0BF4818002038B5044608B9FCF72B
:10B65000C5FC01F0C2FF47F23053C4F8183104F1C1
:10B6600030000025FEF78AFD154984F8275184F83B
:10B670002851204602F090FA1249204602F08CFA36
:10B68000204611494022FFF76FFED4F82C01FFF746
:10B690003BFF88B14FF47A71284609F0CDFF04F1E1
:10B6A000E402034644F6C3712046FFF7BBFE204682
:10B6B000BDE8384001F098BF2046FFF7CFFDF6E720
:10B6C0004EF003005EF003007EF0030038B50D4637
:10B6D000044608B9FCF782FC01F07FFF1E4804F124
:10B6E000D401FDF72FF9D4F82C01FFF70DFF28B393
:10B6F000194804F1E401FDF725F904F13205284663
:10B70000FFF7AEFE18B12946204602F09DFB04F17A
:10B7100042052846FFF7A4FE18B12946204602F04C
:10B7200093FB20460D4902F033FB20460C4902F002
:10B730002FFB2046BDE8384001F056BF064804F113
:10B74000C401FDF7FFF8002DD7D0FD2384F8263182
:10B750002046FFF783FDD0E7481800205EF0030085
:10B760004EF0030010B5044608B9FCF737FC01F0B1
:10B7700034FF4FF47A73C4F8203194F8293143F040
:10B78000010384F829314FF4E163A4F824314FF028
:10B79000FF33C4F81431002384F82631D4F82C3157
:10B7A00043F002032046C4F82C3102F095FD2046F8
:10B7B000BDE8104001F018BF2DE9F0470C468CB0F1
:10B7C000054608461646994601F007FFFEF7E4FED7
:10B7D000002C40D0B4F9FA112846FFF768FE07465E
:10B7E00000284ED12846FFF73BFEB846B0B9BA460E
:10B7F0005046FFF707FA824678BBB8F1000F6AD0CF
:10B8000098F834305A0766D5B8F83630DB0762D579
:10B81000D8F80030B3F86480C8F304182846FFF75E
:10B820001FFE00284BD1B8F1000F48D0204601F090
:10B83000DBFE404601F0C6FE0446FEF7B3FE20469E
:10B8400001F0CBFEFEF7A8FEF4B9002E3AD16FF05E
:10B85000750700242AE02146BEE70AF104012846C4
:10B8600007F0ABFC9AF835309842C1D3B8F1000F1D
:10B8700005D098F835209A4238BFD046B8E7D04670
:10B88000B6E7B0F86480C7E7B4F9FA112846FFF7C5
:10B890000EFE074600974B46324621462846FFF7E4
:10B8A00040FE002814BF00276FF07507FEF77AFEF0
:10B8B000204601F099FE38460CB0BDE8F087002C18
:10B8C000C3D0E7E731460320FDF718FC7621304668
:10B8D00003F0F8F8BBE703AA31462846FFF7E6F97C
:10B8E000071E2EDB07A8FFF7D3FD58B14FBB07AAF1
:10B8F00005F1100C28686968134603C308356545CF
:10B900001A46F7D1BDF82E303CBBBDF92E0001F030
:10B9100059FE0446FEF746FE204601F05EFEFEF7A5
:10B920003BFE3CBB214607A8FFF7C1FD4B460090FC
:10B930003246214607A8FFF7F4FD40B3ECB9FCF707
:10B940004DFB3EB131460020FDF7D8FB7221304659
:10B9500003F0B8F86FF07107A8E7B4F9FA219A423A
:10B9600008D0204601F040FEB4F9FA21BDF82E308F
:10B970009A42CAD1B4F9FA11D5E7D4F8C030002BF5
:10B9800094D09DF82C2003A9022098478EE76FF0F1
:10B9900075078BE72DE9F04F8B468BB0154699461E
:10B9A000044608B9FCF71AFB01F017FEFEF7F4FD98
:10B9B0002B78853B032B46D8DFE813F00400990071
:10B9C00067027003D4F82C3198073CD59BF80730F8
:10B9D000FF2B38D16B78B3BBB9F1070F33D9A9F17D
:10B9E000080A05F108070BF10803B846564602930A
:10B9F0008EBB0BF108084046FFF74AFD40B9BAF18B
:10BA0000000F3ED1B4F9FA114046FFF750FD06464B
:10BA1000D4F82C3113F480505FD14FF4FA7109F04F
:10BA20000BFE44F6C67105462046FFF7F7FA85423D
:10BA300009D8002E38D02B4606F1440244F6C571D1
:10BA40003046FFF7EFFCFEF7ADFD20460BB0BDE83A
:10BA5000F04F01F0C9BDB145F5D398F80130002B86
:10BA6000F1D098F80020012A06D102980393FFF73D
:10BA70000FFD039B0028E6D1A6EBC30608EBC30825
:10BA8000B6E73B78012B09D1D4F82C31D90405D481
:10BA90003B462A4659462046FEF7A2FB7B78AAEB96
:10BAA000C30A07EBC307AAE7FFF70CFDD4F814316C
:10BAB000A74A93420AD940F6B73398420AD92B468F
:10BAC00004F1C40244F6C6712046BAE7A0F6B830C5
:10BAD0008342F4D205F6B835F1E703F00603062BEE
:10BAE000B1D1002241462046FFF76BFBABE70BF1DB
:10BAF000080318460493FFF7B3FC0028A3D09BF873
:10BB00000730FF2B9FD16B78002B9CD1B9F10F0F21
:10BB100099D9D4F82C01C20406D4EB885BBA9BB245
:10BB200042F2283293428ED8A9F1100305F1100693
:10BB30000393A9F1100233464FF00008002A40F0A9
:10BB40008B80B8F1000F00F09E804046FEF7AAF807
:10BB500000283FF478AFB8F80670BBB2002B00F0B5
:10BB60008F807FBABFB24EF660235F438046B5F840
:10BB70000690B4F9FA1104981FFA89F3002B00F02B
:10BB80008A80FEF7A7FE029000283FF45CAF99FA86
:10BB900099F94FF47A731FFA89F903FB09F9024600
:10BBA0004B46043244F6CD71FFF73CFC4F4528BFAD
:10BBB0004F462B790BB184F8F831AB689BB193FAFF
:10BBC00083F9D4F8183199450DD02046614B04F122
:10BBD000D40244F6CE71FFF725FCC4F8189104F1A5
:10BBE0003000FEF7CBFAEB6813B11BBAC4F8203172
:10BBF000029BABB1D4F82C31DB0411D594F8303072
:10BC000013F0EF0F03D004F13200FDF727FF94F893
:10BC1000313013F0EF0F03D004F14200FDF71EFFA7
:10BC2000039B002B3FD1029B002B3FF40CAF04F190
:10BC3000E40549482946FCF785FED4F82C31DA049E
:10BC40007FF501AF2046FFF76DFBBB0803EB430315
:10BC50002A4644F6C37137E79145FFF4F4AE5978AC
:10BC600000293FF4F0AE1F78232F04D1B8F1000F64
:10BC70007FF4E9AE9846A2EBC10203EBC1035DE796
:10BC800042F210776FE7FFF745FC00287FF4DBAE48
:10BC90004FF0FF376BE7FEF783FE08B1FFF71EFC9E
:10BCA0000023029385E73378052B20D00BD8012B96
:10BCB00016D0032B43D07378039AA2EBC3020392EE
:10BCC00006EBC306ACE7182B1FD0222BF3D142465C
:10BCD00031462846FEF734F8874228BF0746EAE790
:10BCE00033462A4659462046FEF77AFAE3E7737848
:10BCF000012BE0D12B78862BDDD173681BBAB3F50D
:10BD0000A06FD8D3A4F82A31D5E706F10809484630
:10BD1000FFF7A6FB0028CED17268B1781AB9484661
:10BD200000F01EFCC7E7B2F1FF3F18BF10BAB4F92C
:10BD3000FA31049A0090484600F09CFBBBE7737808
:10BD4000042B0BD04FF0FF339F4228BF1F46B2E7B2
:10BD500047F4FFFF00DD6D00481800202B78862B8C
:10BD6000F0D106F1100A5046FFF77AFB0028E9D11E
:10BD700073680693B26807921BBA92FA82F94B4530
:10BD8000E0D3D4F82C11F278C80401D51106D9D427
:10BD9000520606D5B278059351462046FFF7E4FADD
:10BDA000059BF2783F2A0AD8D4F82C010593FFF7B7
:10BDB000B1FB0028C6D0059BB8F1000FC2D0B27805
:10BDC00005927268E2B9914613E099F83430580749
:10BDD0000FD599F83530059A93420AD1514609F1A9
:10BDE000040007F0EAF9059B984202D34846FEF7A3
:10BDF000D7FF4846FEF706FF81460028E5D1A1E7B8
:10BE0000069A013207D0A34A93429ABF4FF47A723E
:10BE100053436FF00103079A013208D09D4A9145C0
:10BE20009ABF4FF47A7202FB09F96FF00109CDF85D
:10BE300000905146059AB4F9FA010693FFF792F87B
:10BE4000824600283FF47EAF069BB8F1000F05D074
:10BE5000014640460593FFF72FF8059B96F903200E
:10BE6000F178002ABEBFBAF8362042F00102AAF8E3
:10BE70003620490642BFBAF8362042F00202AAF83C
:10BE800036204B4528BF4B465EE79BF80730FF2B1B
:10BE90007FF4D9AD6B78002B7FF4D5ADB9F1170FD6
:10BEA0007FF6D1AD2B7AFF2B3FF4CDAD0BF1080619
:10BEB0003046FFF7EDFA40B177490D220BF118003B
:10BEC0000EF0D8FD00287FF4BEAD05F1080841460C
:10BED000204601F027FD031E0393FFF6B4ADA9F140
:10BEE000180305F1180702933A469A46BAF1000F73
:10BEF0000CD13046FFF7CCFAA0B1CDF800A05346E4
:10BF000032462146404600F097FF9CE5D145FFF4BC
:10BF10009AAD517800293FF496ADAAEBC10A02EB25
:10BF2000C102E3E7D4F82C21D30705D4B4F9FA1100
:10BF300003223046FEF718FC4FF0000AD146029B60
:10BF40001BBBBAF1000F3CD0B9F1000F42D02A461A
:10BF5000CDF80090534659462046FDF7C3FF0546ED
:10BF600000283FF470AD039F274497F830309806BF
:10BF700040F18780B4F9FA114046FFF798FA074676
:10BF800050BB2846FFF790FA5DE53A78012A0AD0BF
:10BF9000212A08BFBA467A78029BA3EBC203029318
:10BFA00007EBC207CBE7D4F82C01FFF7B3FA30B99F
:10BFB0003B462A4659462046FEF712F9EBE7B946BA
:10BFC000E9E7B9F1000F05D04B462A46594620460D
:10BFD000FEF706F90025C6E7D4F82C3113F0020F5E
:10BFE0009BF8183014BF4FF0C0094FF04009FF2BE9
:10BFF00026D194F854A104F5A671524608A80EF073
:10C00000F4FDBAF1000F17D02A46514608A800F0F7
:10C0100060FE0028B5D0054640462A46494600F055
:10C02000DBFD80460028ACD032460021FDF79AFCAB
:10C03000064640B94046A5E749F020092846EAE708
:10C0400049F02009E8E74368FF22DA7100231A4625
:10C050001946184602F0B0F9054608B9304691E78E
:10C060004368B4F8FA215A804FF47A7106600020D0
:10C0700009F0E2FA07F13402034644F6C271284699
:10C08000DFE49BF818300095A3F1FF014B424B41D0
:10C0900036E700BF378941006EF003009BF8073098
:10C0A000FF2B7FF4D0AC6B78002B7FF4CCACB9F1D4
:10C0B000170F7FF6C8AC2B7AFF2B3FF4C4AC9BF86C
:10C0C0001830FF2B03D12B795A063FF5BCACA9F1F0
:10C0D000180A05F118084346574637BBB4F9FA1158
:10C0E00005F10800FFF7E3F9064600283FF4ABAC82
:10C0F000BAF1000F25D167B92B795B0609D5B6F8DF
:10C10000643003F00703022B03D031462046FEF7CC
:10C1100009F9D4F82C3113F001037FF494AC2A46CA
:10C1200031462046FEF710F98DE4B945FFF48BAC9B
:10C130005A78002A3FF487ACA7EBC20703EBC2038F
:10C14000CBE798F80030022B08D0212B0ED098F8BE
:10C150000130AAEBC30A08EBC308C9E743462A46E5
:10C1600031462046FEF7F0F80127F0E7CDE90086DA
:10C1700043462A4659462046FDF7E0FCE7E700BF64
:10C1800038B50D46044601F028FA3DB12046FFF7C8
:10C19000C9F82046BDE8384001F026BA4FF47A715C
:10C1A000284609F049FAFD2384F82631D4F82C31C9
:10C1B00023F004030546C4F82C312046FFF74EF85F
:10C1C0002B4604F1E40244F6C3712046FFF72AF936
:10C1D000DFE7000038B5044601F0FFF9D4F82C0180
:10C1E000FFF792F938B344F6C3712046FEF716FF05
:10C1F000D4F82C31DA0423D594F82731022B42F2FB
:10C2000010750AD9033B4FF47A6202FA03F31D4416
:10C210004EF660239D4228BF1D46A8420BD9114906
:10C22000204600F095FE94F82731092B0BD9D4F85D
:10C230002C31DB040DD42046BDE8384001F0D4B9E0
:10C240004FF47A65E9E70133DBB2022B84F827313A
:10C25000EDD82B4604F1E40244F6C3712046FFF703
:10C26000E1F8E8E74EF00300F8B50D460446FEF7A6
:10C2700093F9A5F59F41403910290DD8DFE801F069
:10C28000090918260C2A2E1010410C4549931497C1
:10C2900032002046FEF7F1F8BDE8F840FEF782B91B
:10C2A0002046FEF721F8F7E72046FDF767FFF3E7A2
:10C2B0004149234640F20222022000F045FF0028B7
:10C2C000EAD10921204602F0FDFBE5E72046FFF711
:10C2D00081FFE1E72046FEF7A4FFDDE72046FEF7F9
:10C2E000BDFFD9E7354804F12401FCF72BFB94F896
:10C2F000343023F0100384F834302046FEF758FC25
:10C30000CAE72046FEF7F2F9C6E72046FEF79CFD95
:10C31000C2E72368B3F86400C0F3041001F052F9D7
:10C3200005460028B8D0FFF7CDF80646284601F0AC
:10C3300054F9A36B9E4206D32046FEF731FD2846F2
:10C3400001F052F9A8E7E36B9E42F8D3271D394666
:10C3500005F1320006F031FF94F8353083429FBF7B
:10C3600095F8303023F01F0343F0080385F8303090
:10C37000394605F1420006F020FF94F8353083423B
:10C380009FBF95F8313023F01F0343F0080385F871
:10C390003130A36B04F114029B1B44F6CC71204690
:10C3A000FFF740F8CBE72046FFF798F874E7204600
:10C3B000FDF754FB70E700BF0000FFFF48180020A6
:10C3C00070B5046806460D46FEF7E6F82046FEF70F
:10C3D000B1FD044698B10D4910220EF04BFB002828
:10C3E000F4D023462A4604F1100153F8040B42F816
:10C3F000040B8B42F9D123692B6163696B61FEF7F2
:10C40000D1F8201E346018BF012070BD9EF00300DB
:10C4100070B58AB0044601462822684606F0B4FF8B
:10C420000C4B0546186843690133D4E904640DD008
:10C430000DF0C6FB241A3246294607484EF6602303
:10C44000B4FBF3F30EF09EFA0AB070BD83685B682C
:10C450009847EFE750F40300A2C2030008B504496F
:10C4600010220EF007FBB0FA80F0400908BD00BFB3
:10C470009EF003002DE9F843089D894614461F46A7
:10C48000804688B181B1FFF7E9FF0646304B9D42F7
:10C490009ABF4FF47A735D434FF0FF350FB12EB161
:10C4A0000CBB6FF0150412E00126EFE7FEF774F8FD
:10C4B0004B46802B204628BF802342463946FEF754
:10C4C000F1FA044630B96FF00B04FEF76BF8204622
:10C4D000BDE8F88390F8343043F0100380F834302E
:10C4E0001DBB0024F1E7FEF757F820463946FEF75A
:10C4F000F1F904460028E6D0164B1860002DF0D064
:10C50000154B061D31461548B3F90070FCF71AFAB1
:10C510000023C4E9013544F6CD73E3812461A7818A
:10C5200031460E48FCF7D8F9DBE70B4B00F1240746
:10C5300039460A48B3F90080FCF704FA44F6D07390
:10C54000C4E90965E3852463A4F82C803946E8E74B
:10C5500037894100601C0020441400204818002046
:10C5600070B505460E46FEF717F82DB126B12846E0
:10C57000FFF774FF044640B1FEF734FA08B1FEF746
:10C58000D7F9BDE87040FEF70DB82046FEF73AFB3C
:10C5900004460028F5D094F83530B342F5D1294649
:10C5A000201D06F00AFEB042EFD3074804F1240133
:10C5B000FCF7C8F994F8343023F0100384F83430D1
:10C5C0002046FEF7F5FADCE7481800202DE9F04197
:10C5D00006460F469846154602B10BB9FBF7FEFC1E
:10C5E000106838B92C682046FEF70CFB0446F0B9F9
:10C5F000286003E0FEF71AFB0028F3D12C682046E0
:10C60000FEF7B8F9044670B120680028F7D02FB1C2
:10C61000B0F86430C3F304139F42F0D156BB4146D7
:10C620002046FEF70BFA201E18BF012018E094F8F0
:10C630003430002BD2D020680028D4D0042B02D173
:10C64000E38EDB07CFD52FB1B0F86430C3F304130A
:10C650009F42C8D13EB920464146FEF7F5FA012077
:10C660002C60BDE8F0813146043006F090FD0028D2
:10C67000F1D1B8E73146043006F089FD0028BED07C
:10C68000CDE7000030B590F820308BB0044613B1F0
:10C69000FFF7E4FEF8B194F82110154B154A16483F
:10C6A000002918BF1A4611460EF06CF904F1100566
:10C6B0002846FFF7D3FE40B929462822684606F0EF
:10C6C00063FE01460D480EF05DF9618C0C480EF0DA
:10C6D00059F90BB030BD21462822684606F054FEB9
:10C6E00094F82020014607480EF04CF9DEE700BF21
:10C6F000BAC203005FC60300BCC20300CEC203007F
:10C70000D6C20300C7C20300F8B50F4616461D4641
:10C71000044608B9FBF762FC082BFBD84B1E1F2B05
:10C72000F8D8FDF739FF204600223946FEF71CF8FD
:10C73000044620B9FDF736FF6FF00B00F8BD2EB1AF
:10C7400025B12A4631461C300EF04FFAB4F8643059
:10C7500084F8685023F4C06323F0070343F4C063F4
:10C76000A4F86430FDF71EFF0020E7E770B505462A
:10C770000E46FDF711FF00242046FDF749FF044651
:10C7800070B1B4F86430C3F304139E42F4D1211D98
:10C79000284606F0FCFC0028EED02046FDF7A6FF58
:10C7A000BDE87040FDF7FEBE38B50546FDF7F4FE66
:10C7B00000242046FDF72CFF044680B194F8663033
:10C7C000DA07F6D5211D284606F0E1FC0028F0D056
:10C7D000B4F864305B0702D02046FDF759FFBDE88E
:10C7E0003840FDF7DFBEF8B50C6806460D46174623
:10C7F000FDF7D2FE2046FDF70BFF044670B194F81A
:10C800006630DB07F6D52EB1B4F86430C3F30413F9
:10C810009E42EFD139462046FEF712F82C60FDF714
:10C82000C1FE2868003818BF0120F8BD10B58AB0D5
:10C83000014604462822684606F0A6FD014619482E
:10C840000EF0A0F8238B13F4F87FC3F3041102D089
:10C8500015480EF097F8A17E6A4604F1100006F024
:10C860003AFF014611480EF08DF8238B1B0702D5C5
:10C870000F480EF087F8238B0E4A0F4803F007038A
:10C8800052F823100EF07EF8238B0C4A0A48C3F3AB
:10C89000412352F823100EF075F809480EF0E2F823
:10C8A0000AB010BD69D90300DFC20300E8C203006B
:10C8B000F3C2030008F00300A9DA0300F8EF030055
:10C8C0005FC603002DE9F04387B00C4607461646C5
:10C8D0000021102202A8DDF838901D460EF0F3F872
:10C8E0000CB9FBF77BFB802EB04628BF4FF08008C9
:10C8F0005FFA88F2214602A806F07EFC2749102242
:10C9000002A80EF0B7F8002844D025490822204696
:10C910000EF0B0F800283DD02378FF2B3AD0A9457F
:10C9200038D8FDF739FE2B46CDF800904246214617
:10C930003846FEF717FB054630B9FDF733FE6FF0BA
:10C940000B0007B0BDE8F08338B200F03BFE0446B0
:10C9500018B9FDF727FE0020F3E700F03EFED4F8FB
:10C960002C31DA045EBFEB8E43F00103EB8694F8C2
:10C970002931DB0705D57F2E9EBFEB8E43F00203E6
:10C98000EB86204600F030FEFDF70CFE2046FEF759
:10C9900065FCE0E76FF01500D3E700BF9EF00300F1
:10C9A0007EF00300F8B5054617460E4609B9FBF7B9
:10C9B00015FBFDF7F1FD00242046FEF723F90446A0
:10C9C00010B32368002BF2D094F83520BA42F3D18B
:10C9D0002DB1B3F86430C3F304139D42ECD1211D93
:10C9E000304606F0EAFBB842E6D328B200F0EAFD92
:10C9F00038B1D0F82C315B0703D505492246FEF744
:10CA00009CFC2046FEF7CCF9BDE8F840FDF7CABD16
:10CA10005EF003002DE9F0410C6807460E4615460E
:10CA2000FDF7BAFD2046FEF7EDF8044630B3D4F822
:10CA30000080B8F1000FF5D094F834305B07F1D5E1
:10CA40002FB1B8F86430C3F304139F42EAD194F8CD
:10CA500035302B741022002128460EF034F894F85B
:10CA60003520211D284606F0C7FBB8F86430C3F313
:10CA700004136B82A36B6B61E36BAB61FDF792FDFB
:10CA8000201E346018BF0120BDE8F08130B58FB0A2
:10CA900005461022002168460EF015F81E4B186856
:10CAA0004369013334D00DF08BF82A7C29460446C3
:10CAB000684606F0A1FB2822694604A806F064FC3B
:10CAC0002A7C014615480DF05DFF698A14480DF077
:10CAD00059FF69694A1C07D0091B4FF47A73114842
