:1010000000020020491C0000E51B0000A11B00009D
:10101000F51B0000051C0000151C0000000000006E
:10102000000000000000000000000000851B000020
:10103000251C000000000000391B0000351C0000CA
:101040007B2300007B230000812900005120000049
:101050006D2000007B2300007B2300007B23000029
:101060007B2300007B2300007B2300007B23000008
:101070007B2300007B2300007B2300007B230000F8
:101080007B230000F52600007B2300007B2300006B
:101090007B2300007B2300007B2300007B230000D8
:1010A0007B2300007B2300007B2300007B230000C8
:1010B0007B2300007B2300000000000000000000F4
:1010C0007B2300007B2300007B230000892000009D
:1010D0007B2300007B2300007B230000312F0000D6
:1010E0007B2300007B2300007B2300000000000026
:1010F000000000007B23000000000000A52000008D
:1011000073B5224803F006FE214B1D6805212846D1
:1011100003F05AFB14211F4803F094FD00F046F938
:1011200038B91D4803F0F6FD0121284603F04CFBB9
:10113000FAE7102000F0C6F838B9184803F0EAFDC5
:101140000121284603F040FBFAE7154E0024002356
:1011500001A8019300F0D0F898B1019A11482146F6
:1011600003F070FD30689621013403F02DFB0A2C4A
:10117000EDD10D4803F0CEFD0121284603F024FBFC
:10118000FAE72146094803F05DFDEBE7F056000061
:10119000E85B0000F55600000F57000022570000E2
:1011A000EC5B00003A5700004F5700004657000024
:1011B00073B50A4D044628680E4601F0B3F90023C2
:1011C0000093224633467621286801F04FFF0446FB
:1011D000286801F0CBF9204602B070BD80020020E3
:1011E00073B50A4D044628680E4601F09BF90023AA
:1011F0000093224633467621286801F041FF0446D9
:10120000286801F0B3F9204602B070BD80020020CA
:10121000F7B50B4D044628680E46174601F082F9D3
:101220000023CDE90073224633467621286801F079
:10123000EDF90446286801F099F9204603B0F0BDA5
:101240008002002010B501460446D020FFF7B0FF11
:1012500028B92078A0F158035842584110BD002009
:10126000FCE7000007B5062269468820FFF7D0FF9B
:1012700078B9094BBDF800201A80084BBDF8022050
:101280001A80074BBDF804201A80012003B05DF8D6
:1012900004FB0020FAE700BF7E0200207C02002051
:1012A0007A02002008B52021F420FFF799FF20B929
:1012B000034B20221A70012008BD0020FCE700BF6C
:1012C000780200200238C0B20E2898BF084B10B533
:1012D00094BF1C5C01246401E4B22146F420FFF7B2
:1012E0007FFF18B9034B01201C7010BD0020FCE7E4
:1012F0003F5B00007802002073B5274B197821F07E
:101300000301044641F00101F420FFF769FF05469F
:1013100000283DD1214E8DF8045001A9F320FFF79C
:1013200047FFA8BB9DF804301B072AD53068012170
:1013300003F04AFAEFE79DF805309DF804209DF888
:1013400006101B0143EA0233154A128843EA1111C1
:10135000C2EB13135200C2EBD1021249B1F90010D3
:101360004A4311495B43B1F900101B134B439B13D4
:1013700003EBE22303EB830380331B122360012082
:1013800007E0032201A9FA20FFF742FF0028D2D08C
:10139000002002B070BD00BF78020020EC5B0000AE
:1013A0007E0200207C0200207A02002007B50A4A53
:1013B00000230DF1070013608DF80730FFF742FF9F
:1013C00018B9002003B05DF804FBFFF74BFF0028BD
:1013D000F7D0FFF767FFF5E78002002070B5064BF6
:1013E000064E9B1B9C080025AC4200D170BD56F8F0
:1013F000253098470135F7E7045C0000FC5B0000EE
:1014000013B5002001F07EFD014608B900F09EFAF8
:10141000084C204602F01AF8204602F0BFFF064BA7
:101420000648009401224FF4806102F01BF802B0DC
:1014300010BD00BF84020020545700003404002077
:10144000704700004FF080435722C3F81C25BFF3BC
:101450004F8F0549054BCA6802F4E0621343CB6025
:10146000BFF34F8F00BFFDE700ED00E00400FA0579
:1014700070B504460846EFF3108672B6236833B998
:101480004FF0FF33236086F31088012070BD11B93F
:1014900086F31088FAE70F4B1D680DB900F056FA75
:1014A0000321284600F0B2F8236801330DD105F17D
:1014B0000C0323600023EB6086F31088064B4FF08B
:1014C00080525A60BFF36F8FDFE72946204600F055
:1014D0003FF9F1E77C08002000ED00E038B5044654
:1014E000EFF3108572B6006810B985F3108838BD27
:1014F000431C02D100232360F7E750F80C39236026
:101500000C2100F083F8236813B94FF0FF332360F8
:1015100085F31088034B4FF080525A60BFF36F8FF2
:10152000E5E700BF00ED00E008B503790B2B04BF31
:101530000C230371836A1A68934208D0B0F906102D
:10154000034803F07FFB03490D2000F037FA08BD84
:101550005A5700008957000010B5046844B1236849
:101560008B4206D19C4219BF1B6823600023036095
:1015700010BD1A461B68994202D09442F9D1F7E790
:10158000002AF5D013681B6813600368994208BFEE
:101590000260EDE770B5174C174E236835683BBB0A
:1015A00015B12846FFF7C0FF00F0F4FA2368002BBE
:1015B000FAD00020114A00211160B3FA83F3104AD7
:1015C00052F823301C680C3C0B23AC4223710DD025
:1015D00008B1FFF7A9FF0B4BA16AB4F906201A80E6
:1015E0001F31094A3460022000F036FA204670BDEF
:1015F0002846DFE7340800207C0800207808002017
:1016000038080020080900200800061670B50A29CD
:10161000037904460D461AD90A2B14D84279174B80
:1016200000F10C0153F8220078B10068E06053F833
:101630002200016043F8221011494FF00043D340CB
:101640000A6813430B60257170BDE160F2E70A2B55
:10165000F9D94079094E04F10C0106EB8000FFF73F
:101660007BFF637956F82320002AECD104494FF020
:101670000042DA400B6823EA0203E3E7380800205F
:10168000340800200B4B1B681A790A2A02D95B79AF
:1016900083420DD9EFF30583DBB21BB1064B012268
:1016A0001A607047054B4FF080525A60BFF36F8F3E
:1016B000704700BF7C0800207808002000ED00E0A3
:1016C00008B5EFF3108372B6094B0A4A1B880A4D1E
:1016D0001BB2002442F82340084A286813682146B8
:1016E000013B1360FFF792FF2C6000F00FFA00BF80
:1016F00008090020840800207C08002080080020C1
:10170000431E9BB21F2B05D8034B53F8200010B18A
:10171000C06A7047002070478408002010B5EFF3BE
:101720000583DBB27BB9EFF3108472B6064B02215E
:101730001868FFF76BFF84F31088044B4FF080525A
:101740005A60BFF36F8F10BD7C08002000ED00E0F1
:1017500038B50B790A2B01D900F0F8F84C7901F172
:101760000C020346006818B110F8075CA542F8D9CE
:10177000C8601A6038BD00000F2A2DE9F84F0546F1
:101780008A469046994633D810F003031DBFC3F133
:101790000402043B5B180B46A3F1340318BFAD18D9
:1017A00033F0030324D419F0080F05EB030416D01B
:1017B0002D60EFF3108B72B6274A0126114652F8BE
:1017C000047FC7B10136212EF9D18BF310886FF059
:1017D0008A063EE012600432A242FBD3E9E72A46C1
:1017E000FAE702212046FFF711FF8BF3108830E063
:1017F0006FF015062DE036B22A4641F82640DDE9A5
:101800000A01E68000F04EF90C9B144AE3624FF0A7
:10181000FF33C4E9083713682060013319F0010F62
:10182000C4E90377C4E90577A562C4F830A084F859
:1018300005802771E7611360D3D10C212046FFF7A3
:10184000E5FE19F0040FD0D18BF310884046FFF766
:1018500019FF3046BDE8F88F84080020800800207A
:1018600010B50346EFF3108472B6028902EA010054
:1018700022EA01021A8184F3108810BD0C4A034643
:1018800010B51068EFF3108472B6028913420CD1C0
:1018900003610721FFF7BAFE84F31088054B4FF070
:1018A00080525A60BFF36F8F10BD84F31088FBE73E
:1018B0007C08002000ED00E038B5054B1D680446AB
:1018C000FFF7DCFF21462846BDE83840FFF7C8BFD8
:1018D0007C08002010B5EFF3108472B603890279FA
:1018E0001943072A038A018104D0082A13D084F3FC
:1018F00010880FE01942FAD00C21FFF787FE074B42
:1019000001221A6084F31088054B4FF080525A6010
:10191000BFF36F8F10BD8B43E9D1EDE7780800204E
:1019200000ED00E008B5EFF30583DBB243B9EFF358
:1019300010832BB9044803F0EDF9FFF7EFFEFCE745
:101940000149032000F03AF89857000008B57146A5
:10195000024803F077F9FFF7E5FF00BFAA57000040
:1019600008B5FFF73BFD034803F0D4F9FFF7C8FBC8
:10197000002008BDB35700001FB5EFF3108372B607
:10198000074B029300230193064B00930722042385
:101990004FF4C0610448FFF7EFFE00F0B7F800BF56
:1019A000F2570000611900000A09002008B501F093
:1019B00083FBBDE8084001F09BBB704708B50B4BAB
:1019C0001A680C4652B901221A60FFF7F6FF084860
:1019D000214603F037F9074803F09CF9EFF3108331
:1019E00072B600F049F8FFF72DFD00BF0C0F002084
:1019F000F7570000135800000C4B0D4A10B540215A
:101A00009A600C4CE02283F82220D9770022A0189B
:101A10000132302A80F80013F9D11A6942F010021D
:101A20001A615A6942F400725A6110BD00ED00E07B
:101A30000010000000E100E0064BD3F8942042F0D3
:101A40000502C3F894205A6A42F480325A62002098
:101A5000704700BF00ED00E0064B21F01F0142F08F
:101A60000102C3F89800C3F89C100020C3F8A0201E
:101A7000704700BF00ED00E008B5EFF30581C1F34A
:101A8000080119B10548103903F0DCF8044BD3F80C
:101A9000F030DB0700D500BE08BD00BF20580000B5
:101AA00000ED00E01A4422F0030210B54FF0773445
:101AB00042F8044C540758BF4FF08834A2F1040395
:101AC0005CBF42F8084CA2F108034FF0807243E972
:101AD00002020D4A43F80C2C0020032243E90520A2
:101AE00043F8201C01220224194643E907246FF021
:101AF000020241F8242D0B2241F8042D013A032A59
:101B0000FAD1A3F1440010BDC11600000023E1EE9C
:101B1000103AEFF3148323F0040383F31488BFF324
:101B20006F8FEFF3108362B6024B4FF080525A6012
:101B3000BFF36F8F00ED00E0114910B50C6872B66D
:101B4000FFF728FD62B6A04208BF10BD2146BDE8E0
:101B5000104049B1EFF309821EF0100F08BF22EDCB
:101B6000108A22E9F04F0A600068B0E8F04F1EF0DA
:101B7000100F08BFB0EC108A80F30988704700008E
:101B80007C080020024B4FF080525A60704700BF23
:101B900000ED00E030BF62B6BFF36F8F72B67047E2
:101BA0000D4B0E4A0E496846904203D8984201D91F
:101BB000002102E009468D460121042072460242BE
:101BC00002D1EFF3088001E0EFF309802DE9F00F77
:101BD0006B4600F087F800BF580100200000042089
:101BE0000002002008B502490620FFF7E7FE00BF0B
:101BF0002F58000008B502490520FFF7DFFE00BF9F
:101C00003B58000008B502490820FFF7D7FE00BF87
:101C10004E58000008B502490920FFF7CFFE00BF6B
:101C20006058000008B502490A20FFF7C7FE00BF50
:101C30007458000008B502490B20FFF7BFFE00BF33
:101C400086580000704770471C4AD2F8883043F429
:101C5000700310B5C2F88830FFF7F4FF6A46184BDE
:101C60001848194693421DD3174B184A1848834207
:101C70001BD3184B184A002093421BD321B1174A9B
:101C800017490120FFF7E8FEFFF7D6FEFFF7DBFF5D
:101C900000F03AF9FFF7D4FB03F04CF8BDE8104030
:101CA000FFF76ABE43F8040BDCE752F8044B43F835
:101CB000044BDCE743F8040BDEE700BF00ED00E077
:101CC00000000020FEE7FEE700020020245C000088
:101CD00078020020780200204C150020080006162B
:101CE0001F0000202DE9F04F9A46564B8FB09346C7
:101CF0009A6B03925A6B0492D3F82880DA6A0592A1
:101D00001A6BDB6B0793504B06921A684F4B9A4243
:101D100004460E4602D04E4802F0FCFF002E62D070
:101D20004C4802F0F7FF4C4B4C48198809B202F0BE
:101D300089FF00252F464A4802F0ECFF41464948FA
:101D400002F080FF0599484802F07CFF0699474859
:101D500002F078FF0799464802F074FF18F4004F2C
:101D600003D00399434802F06DFF18F0800F03D0B1
:101D70000499414802F066FF404802F0CBFF40481A
:101D8000594602F05FFF002E29D11BF0080F53D0F7
:101D9000314B1E8836B23046FFF7B2FC3146024660
:101DA000384802F04FFF384802F0B4FF3946374850
:101DB00002F048FF6946364BC91A03D535484942F7
:101DC00002F040FF20468268C36801698C46416981
:101DD0008E46AD46514691E8F00F416800682E49A5
:101DE0000720FFF7EBFDD4E90230D4E90679D4E906
:101DF000001208902069099060690A9019F4007F28
:101E000026480B91CDE90C230CBF04F1200504F109
:101E1000240502F07FFF089B0B9900932048DDE921
:101E20000C2302F00FFFDDE90912CDF800903B46CC
:101E30001C4802F007FF7EE7217F1B48103902F0A3
:101E400001FFB0E700ED00E000000020FEE7FEE744
:101E500094580000AA58000008090020D958000032
:101E6000835900008C5900009C590000AC590000B7
:101E7000BC590000CC590000DC590000EC590000AE
:101E8000F1590000035A0000425A0000735A000042
:101E9000580100209B5A0000C85A0000ED5800006D
:101EA00008590000455900001C5A0000BFF34F8F2D
:101EB0000549064BCA6802F4E0621343CB60BFF3E6
:101EC0004F8F00BFFDE700BF00ED00E00400FA0502
:101ED0004FF0704393F8E02F062A12D1D3F8E40FA5
:101EE00010F00F000DD1D3F8E82F02F0F002302AE5
:101EF00008D1D3F8EC0F00F0F000B0FA80F0400900
:101F0000704700207047000008B5FFF7E1FF30B1CF
:101F1000134AD2F8FC3023F08073C2F8FC30FFF78C
:101F2000D7FF20B14FF080430322C3F8A025FFF76D
:101F3000CFFF30B14FF080430022C3F80C21C3F82B
:101F4000102100F0BDF8074B0122C3F84025FFF730
:101F500053FDFFF72BFDBDE8084001F0A0B800BF1E
:101F600000ED00E000E00140044B1B682BB1044B86
:101F70004FF080525A60BFF36F8F7047780800208F
:101F800000ED00E008B50C4B98420CD0B0F1402FAA
:101F90000BD003F50033984209D003F54043984233
:101FA00007D0FFF7D3FC002008BD0120FCE702208A
:101FB000FAE70320F8E700BF0030004038B50D46CF
:101FC0001446FFF7DFFF0A4B43F82050094B43F854
:101FD0002040094B1B56002B08DB0122590903F056
:101FE0001F0302FA03F3054A42F8213038BD00BF4F
:101FF000300F0020200F00204E5B000000E100E0C9
:10200000FFF7DCBF70B50E461546FFF7BBFF044671
:102010000648012100EB8400FFF72AFA044B43F83D
:102020002460044B43F8245070BD00BF100F002003
:10203000300F0020200F002008B5FFF7A3FF034B4F
:1020400003EB8000BDE80840FFF748BA100F0020FE
:1020500008B5044A044B10681B689847BDE808405F
:10206000FFF782BF200F0020300F002008B5044A80
:10207000044B50685B689847BDE80840FFF774BFA1
:10208000200F0020300F002008B5044A044B906850
:102090009B689847BDE80840FFF766BF200F002007
:1020A000300F002008B5044A044BD068DB6898471D
:1020B000BDE80840FFF758BF200F0020300F002078
:1020C00070470000084A107868B94FF0804301213A
:1020D000C3F81815C3F804019960D3F80411002956
:1020E000FBD0012313707047400F002003460068A7
:1020F00038B10268904219BF13680360002119606B
:102100001046704708B500B109B9FFF71FFC4B68CE
:10211000002BFAD0EFF3108272B60B6833B9036864
:102120006BB11B680B60036819600160406882F343
:10213000108830B1BDE808400121FFF7CBBB096032
:10214000F3E708BD10B5EFF3108472B6FFF7CEFFCA
:1021500084F3108808B10023036010BD38B1054B2B
:102160000A0901F00F019A5C5B5C02704370022067
:10217000704700BF525B0000F8B50D465700064699
:1021800010B18C18A54201D13846F8BD304615F87B
:10219000011BFFF7E3FF0236F4E7D8B1E1B10023FA
:1021A00040EA0102D20709D5C2070BD5CA070BD5F1
:1021B00081420BD2421A08461146F7E74008490807
:1021C0000133EDE74008EFE74908EFE7091AEDD1E1
:1021D00000FA03F1084670470146FBE72DE9F84392
:1021E00006460D4614460AB9FFF7B0FB11462846CD
:1021F000FFF7D3FFA042F7D8A84239D8B5FBF0F1DA
:10220000B4FBF0F20025B1FA81F44FF0004EC4F1B6
:1022100020002EFA04FEC4F15F0C2B462C462F46FC
:10222000DB1847EB070811EA0E0F18BF43F0010354
:10223000934278F1000947464FEA44044FEA5E0EA4
:102240000FD39B1A68F1000744F00104002C0BDA4D
:102250003B4300D00134C0F1200333713460BDE84A
:10226000F883002CF2D1013801356545D8D1EFE76C
:1022700000200446EFE738B5054600F0B7FF0446F6
:1022800005F11000FFF72AF9204638BD73B50A465C
:102290000C462321054602F045FD684600F0DEFEAF
:1022A0006946002241F2055311F8010B03EB431379
:1022B0000344B2FBF4F004FB102001322E5C082A28
:1022C00086EA03062E54EFD1002341F205529C42C8
:1022D00001D102B070BDE95C02EB42120A44B3FBCB
:1022E000F4F104FB11310133685C50406854EEE7AF
:1022F000014B186802F070BC2402002070470000F7
:1023000030B50346EFF3108472B6094A094D1068E0
:102310000144A94205D8084DA94202D31160421CCC
:1023200003D10C221A604FF0FF3084F3108830BDC7
:1023300000020020000004204C1500201946104621
:1023400000F006BF1946104600F0E8BE13230360F4
:102350004FF0FF307047132303604FF0FF3070479A
:10236000132303604FF0FF30704702294FF0000342
:1023700003608CBF002001207047FFF75BBC0000AA
:102380000C2907D841F21903CB40DB0706D44FF0E4
:10239000FF30704740F20C639942F8D110F0200FE3
:1023A00000F01F00044B00F5E07008BF4FF0A043A1
:1023B00043F8201000207047000300500C23054A0A
:1023C0004343D358044AC3F80823044B03EB80006B
:1023D000FFF784B8645B000002020001440F002094
:1023E00008B540F20C610520FFF7CAFFBDE80840C0
:1023F00040F20C610420FFF7C3BF000038B54FF076
:10240000402540F40073C5F80433044601211A48FE
:10241000FFF72EF8D5F8043113B10023C5F80431C5
:10242000022C0BD04FF04023D3F84C15D3F848259D
:10243000914203D0D3F82421002AF5D04FF0402355
:10244000D3F824210AB9002038BD0022C3F8242182
:10245000D3F8C424910705D50222C3F8C4246FF031
:102460000500F1E7D3F8C4245207ECD50422C3F8E1
:10247000C4246FF00400E7E7440F002038B59DF84E
:10248000105018B912B1581EFE2801D9FFF75EFA94
:1024900015F009001BD14FF04024C4F88815C4F88A
:1024A0004425C4F848356B075CBF4FF40073C4F88B
:1024B00000324FF001034CBFC4F800020220A360B9
:1024C00048BF4FF08070BDE83840FFF797BF6FF00E
:1024D0005E0038BD38B5054608B1FFF737FA4FF052
:1024E00040240E4801210560FEF7C2FFC4F80055E4
:1024F000FFF776FF0523C4F808350423C4F80C352C
:102500004FF0CC73C4F8243505492A462046FFF71E
:1025100077FD0623C4F8003538BD00BF440F002006
:10252000BD23000010B5044608B1FFF70FFA0121E2
:102530000C48FEF79DFF22460B494FF04020FFF765
:1025400061FD4FF040230522C3F808250422C3F89B
:102550000C254FF0CC72C3F824250622C3F80025C1
:1025600010BD00BF480F0020BD23000010B508B10A
:10257000FFF7ECF94FF04024C4F800050348FEF7DC
:10258000ADFF2046BDE81040FFF756BD480F0020C4
:102590002DE9F341089F9DF824800E4614461D4600
:1025A00018B913B17B1EFB2B01D9FFF7CFF918F037
:1025B000090F24D101211348FEF75AFF18F0020F2A
:1025C0001148E3B21BBF240A04700124022414BF83
:1025D000437003703A462946204402F0D2FBE319C7
:1025E000094ACDF8008031460020FFF747FF044636
:1025F0000448FEF773FF204602B0BDE8F0816FF09B
:102600005E04F8E74C0F0020500F002037B5069C01
:102610009DF81C50ADF8062018B913B1621EFE2AB1
:1026200001D9FFF793F915F00D0F24D14FF0402297
:102630000220C2F88815A90743BFBDF8061049BAA1
:10264000ADF80610012148BF0221C2F848154FF02D
:1026500040220DF10601C2F84415C2F834354FF49A
:102660008453C2F83845C2F8003201239360FFF763
:10267000C5FE03B030BD6FF05E00FAE708B5FFF7A6
:1026800021FD064B01225A6005494FF400300860D5
:102690000021C3F808151A6008BD00BF00100140F2
:1026A00000E100E0014BD3F8040570470010014041
:1026B000064B1960064B1A60064B20F07F404FF422
:1026C0008032C3F84005C3F8042370475C10002033
:1026D0005810002000100140024B4FF48032C3F824
:1026E0000823704700100140014B01221A60704717
:1026F0000010014010B5134CD4F84031012B0BD120
:102700000023C4F840314FF480330F4AC4F8083333
:102710000E4B10681B689847D4F80431012B07D181
:1027200000230B4AC4F804310A4B10681B68984711
:10273000094B1B682BB1094B4FF080525A60BFF315
:102740006F8F10BD00100140581000205C10002059
:1027500050100020541000207808002000ED00E008
:1027600070B50C4615460146002840F093804B4A50
:102770004B4EC2E90053C6F86C052DB12C20FFF773
:10278000FFFD2C23C6F8143503212B20FFF7F8FD9D
:10279000434B2B22C3F80C25B4F5614F4FF0FF32A9
:1027A000C3F80825C3F8102552D020D8B4F5615FCE
:1027B00047D011D8B4F5965F41D008D8B4F5966FDC
:1027C0002FD0B4F5166F37D06FF0850070BDB4F51B
:1027D000165FF9D1334A26E0B4F5E14F34D0B4F5B1
:1027E000164F33D0B4F5964FEED12F4A1BE02F4A47
:1027F000944233D00AD8B4F5E13F2BD0B4F5613F11
:102800002AD0B4F5963FDFD1294A0CE0B4F5612F08
:1028100027D0284A944226D0B4F5E12FD4D1264AB5
:1028200001E04FF49E22C3F824251D4B0822C3F873
:102830000025DDB90020C9E74FF41D22F3E71F4A48
:10284000F1E74FF46C12EEE71D4AECE71D4AEAE7A8
:102850001D4AE8E71D4AE6E71D4AE4E74FF08062BB
:10286000E1E71C4ADFE74FF08052DCE701211A4A1A
:10287000C3F83815C3F834251022C3F80423D3F85D
:10288000002242F02002C3F800221960134B0422F8
:102890001A60CFE76FF0120098E700BF64100020C5
:1028A000002000400050270000A04E0090D0030000
:1028B00000903A0140420F0000705F0700B0130023
:1028C00000F0750000509D0000F0EB0000E0D70123
:1028D00000B0AF0300D0BE0E6010002000E100E0A9
:1028E00008B508B1FFF732F8024B01225A60C3F86D
:1028F000000508BD002000402DE9F0410D4688B0DC
:10290000164608B1FFF722F81C4CD4F800352BB15D
:1029100011F0005723D16B46B74202D308B0BDE88F
:10292000F081A6EB0708B8F1200F28BF4FF0200870
:1029300042461846E91902F024FA0022C4F8202180
:102940000122C4F844050346C4F84885A260D4F8BF
:102950002021002AFBD00122E2604744DCE701236A
:10296000C4F82001C4F84415C4F84825A360D4F87D
:102970002031002BFBD00123E360CFE70020004093
:1029800008B50D4BD3F810215AB10022C3F810211D
:10299000D3F83C352BB1094B09491A6809785868B6
:1029A0009047084B1B682BB1074B4FF080525A6081
:1029B000BFF36F8F08BD00BF0020004064100020EF
:1029C000601000207808002000ED00E00129F0B53B
:1029D00004460ED1012A4FF0000507BF1030A5763E
:1029E00004F1700084F87A5004600272417243600E
:1029F00003E0881E012801D90020F0BD04F11C0568
:102A00000126012A14BF05F160072F46384697F8C2
:102A100009C0BCF1000F07D1BE720136082E05D0E7
:102A20000C350028EDD0DFE70020F6E70028DBD1E9
:102A3000E2E7017A0368827A012907D12AB9D3F83B
:102A4000D0304FF48062C3F804237047002AFCD1D1
:102A5000D3F8D0304FF40002F5E7017A0368827AA8
:102A6000012907D12AB9D3F8D0304FF48062C3F8D6
:102A700008237047002AFCD1D3F8D0304FF400026D
:102A8000F5E7D0F8D03001225A6570470268837AA2
:102A9000D2F8D02010B40BB9C2F85C31047A01210D
:102AA000994014B94C3342F823405DF8044BC2F806
:102AB0006C14FFF7BEBF38B5D0F8D030D3F8002182
:102AC00004466AB10022C3F800210421436880F85B
:102AD000D4209847D4F8D0300122C3F8042338BD5D
:102AE000D3F85821002AFAD0D3F80054EA0502D5C9
:102AF000436806219847AB0503D563680721204644
:102B00009847D4F8D0300022C3F8582140F601721B
:102B1000C3F800244FF48002DFE70000F8B5867A9E
:102B200004680F461546A6BB8B0701D0FEF70EFFC3
:102B3000017AD4F8D030012915D16AB994F8D4209B
:102B4000022A09D1196504F11000A36898470423EB
:102B500084F8D4302846F8BD0122C3F80076C3F8C3
:102B600004565A60F6E7C3F80077C3F8042794F8D0
:102B7000D410012908D11965032384F8D43004F155
:102B80007000A3689847E5E70229E3D10122DA64DF
:102B9000E0E7017AD4F8D0301422012902FB063292
:102BA00014D1C2F8007603EB8603C2F804560C4A2F
:102BB0008220C2F81C0C5960D3F808110029FBD000
:102BC0000021C3F80811C2F81C1CC3E706F594766F
:102BD000C2F80077C2F80457012243F82620B9E76B
:102BE00000700240027A08B503680AB1FEF7AEFE33
:102BF0000A4AD3F8D0308221C2F81C1C817A03EB38
:102C0000810301219962D3F830110029FBD0002102
:102C1000C3F83011C2F81C1C08BD00BF0070024090
:102C200008B5837A0BB9FEF791FE0039027A18BF16
:102C3000012103F0070343EA0123511E4A424A419E
:102C400043EAC2130268D2F8D020C2F8183508BD92
:102C5000FFF7E6BF38B5044621B101292DD06FF04A
:102C6000850038BD012B01D0FEF770FE2168A57AE2
:102C70001278007AD1F8D010AB4082B148B9D1F8BF
:102C800014251343C1F814352046FFF7FFFE012039
:102C9000E7E7D1F810251343C1F81035F4E7DB431B
:102CA00028B9D1F814251340C1F81435EFE7D1F84D
:102CB00010251340C1F81035E9E7012BD4D1117864
:102CC000FFF7AEFFE3E7012908B50ED1012B01D0D4
:102CD000FEF73CFE1278D0F8D0101AB1C1F80435D6
:102CE000012008BDC1F80425FAE76FF08500F8E778
:102CF000032908B504D0042902D06FF0850008BD6F
:102D0000012B01D0FEF722FE13700120F7E7012905
:102D100008B504D002291CD06FF0850008BD012B36
:102D200001D0FEF713FE0368D3F8D010837A007A3F
:102D300050B903F5887301EB83014B68003B18BF62
:102D4000012313700120E9E703F5847351F8233060
:102D5000F4E7042BE5D10368817A007AD3F8D03008
:102D600030B901F5947153F8213013600420D5E790
:102D7000142000FB0133D3F80836F6E7F8B5837A60
:102D80000468027A0546002B5BD194F8D410002A1F
:102D90004AD1032907D184F8D4200821A368C9B2F5
:102DA0002846984733E0D4F8D030D3F85C1199B373
:102DB000C3F85C21D3F80027D3F880641670D3F8E9
:102DC0008414C9B25170D3F88804D3F88C7440EAE3
:102DD00007205080D3F89004D3F8947440EA072079
:102DE0009080D3F89804D3F89C7416F0800F40EAD2
:102DF0000720D0800CBF02220122052908BF002233
:102E000084F8D420D3F88434DBB2052BC5D128460E
:102E1000BDE8F840FFF70DBED3F8282182B3C3F810
:102E20002811FFF7DFFEB8E7042902D184F8D43077
:102E3000B3E7D4F8D020D2F8281109B3C2F828316A
:102E4000ABE7012AD4F8D0600ED1D6F86C149A40C2
:102E5000114215D00023C6F86C24C6F860314FF03B
:102E60008073C6F8043398E7D6F86C241033012732
:102E70009F403A4204D0FFF7B5FEC6F86C748CE769
:102E80004FF0FF318AE700004FF0805310B5D3F8C0
:102E90000431B3F1413F01D1FEF758FD174AD0F894
:102EA000D03049F275310324C2F8001CC2F8144D29
:102EB000C2F8001C0121C3F80015D3F8001409055D
:102EC000FBD5D3F8001421F40061C3F8001449F2D3
:102ED00075340021C2F8004CC2F8141DC2F8004C31
:102EE0000122C3F8002502F1A07280F8D410C3F8C3
:102EF0000023034B80225A6010BD00BF00E0064053
:102F000000E100E008B508B1FEF720FD004808BD6B
:102F10006C100020034B044A1A60044AC3F8D02006
:102F2000704700BF6C100020705B00000070024012
:102F30002DE9F041444CD4F8D030D3F80021A2B1AF
:102F4000D3F80023D00710D50121C3F80813636814
:102F5000204698473D4B1B682BB13D4B4FF08052AC
:102F60005A60BFF36F8FBDE8F081D3F858215AB192
:102F7000D3F80023510207D54FF48002C3F8082389
:102F8000314863680121E4E7D3F85C2152B1D3F8FA
:102F900000331A0206D52F48A368012198472D480F
:102FA000FFF75BFDD4F8D030D3F82821C2B1D3F8B5
:102FB00000335B0514D594F8D410012905D12648B7
:102FC000A36898472448FFF748FD94F8D430022BB3
:102FD00006D12048A368012198471F48FFF73DFD0F
:102FE000D4F8D030D3F86021002AB3D0D3F86C24C1
:102FF000002AAFD00022C3F86021D3F86C840C26DD
:103000000127B8F1000FA5D098FAA8F5B5FA85F513
:10301000102D10DDA5F110007043231893F87930BE
:1030200023B17030A36801212044984707FA05F5C1
:1030300028EA0508E5E706FB05F023185B7E002B70
:10304000F4D01030EEE700BF6C10002078080020AC
:1030500000ED00E0DC1000207C100020024A034656
:1030600003CA1860596070476000001013B59DF8DE
:103070001040019401240094FFF7C8FA02B010BD7B
:103080001FB58DF80F309DF8183001930123009380
:103090000DF10F03FFF77CFA05B05DF804FB08B5EE
:1030A00000F009F80020FFF715FAFFF7E7FABDE88E
:1030B0000840FFF72FBF704710B503214FF0A04421
:1030C0001A20FFF75DF94FF08063C4F8083503213B
:1030D0001E20FFF755F94FF08043C4F8083503214F
:1030E0000620FFF74DF94023C4F8083510BD000055
:1030F000F8B5084E084B00259B1B0C27B3FBF7F4D3
:10310000AC4200D1F8BD07FB05F3F35803B1984773
:103110000135F5E7045C00001C5C0000F8B50A4DC1
:103120000A4C0C23641B0746B4FBF3F40E4603FB66
:103130000454A54201D13046F8BDAB68314638464B
:1031400098470C35F5E700BF045C00001C5C0000EC
:103150006FF08500704710B50A460C460146002006
:10316000FFF7CAFB204610BD0020FFF7B9BB0023C4
:103170001A464FF4E1311846FFF7F2BA8268016847
:10318000531C83604368013B1340C85C704710B513
:10319000EFF3108472B6EFF3108172B6D0E9022318
:1031A00081F310889A4204D0FFF7E8FF84F3108877
:1031B00010BD4FF0FF30F9E7F8B505460C46EFF3C8
:1031C000108772B60E4646B1EFF3108172B6D5E99C
:1031D000022381F310889A4203D187F31088A01B41
:1031E000F8BD2846FFF7CAFF013EECE730B5EFF324
:1031F000108472B6EFF3108572B6D0E902239B1AE1
:10320000426885F3108893420BD0C2680568531C4E
:10321000C3604368013B13400020E95484F31088E5
:1032200030BD4FF0FF30F9E7F0B5EFF3108772B61D
:10323000144654B1EFF3108672B6D0E902535B1B0B
:10324000456886F31088AB4203D187F31088101BC2
:10325000F0BDC66811F801CB0568731CC3604368F4
:10326000013B3340013C05F803C0E2E7B1F5167FAE
:1032700008B506D0B1F5966F01D1FEF7E3F800204E
:1032800008BDFEF713FEFEE710B508B9FEF75EFBBA
:103290000368002BFAD01B68BDE810409B6A1847F2
:1032A00010B508B9FEF752FB0368002BFAD01B6873
:1032B000BDE81040DB6918470129F8B5C4680ED194
:1032C000B4F99421531E9BB21F2B96BF254B0020AF
:1032D00053F822000221BDE8F840FEF7FBBA0629A8
:1032E00024D007292BD004291FD1D4F87801012339
:1032F000002584F8983184F89A5104F5CD7208B904
:10330000FEF724FB0168CE682946B047234604F146
:10331000A00283F8405083F8E05014339A42F8D169
:1033200001260027D4F88C5185B9F8BD94F898315E
:1033300084F89931042684F898610227F2E794F81A
:10334000993184F8983108260327EBE7EB681E4291
:1033500005D06B683A465B682946204698472D6839
:10336000E2E700BF840800200368012970B50A461F
:103370000446D86823D1237A591E4B424B41A17A87
:1033800001EBC301C9B202FA01F1EFF3108372B687
:10339000D0F890211143C0F8901183F31088B0F950
:1033A0009421531E9BB21F2B98BF264BBDE8704043
:1033B00094BF53F8220000200421FEF78BBAA37AB1
:1033C0008BB9D0F88C1189B1082A26D0092A0DD1E1
:1033D000CB689B060AD54B6822469D680223A84706
:1033E0001CBBFEF7B3FAD0F8883103B970BD9968F9
:1033F00019B9D96841B91B68F7E78D68AC4201D1AA
:103400001969E0E70968F3E78D680DB90968F1E724
:10341000AE68B442F4D02D68F7E74B689D68224649
:10342000AC460023BDE8704060472368002BD8D02D
:103430001B68054A5D6A01232046AC461946BDE873
:103440007040604784080020A05B000038B5044647
:103450000D464FF4D872002101F064FCC4F8785195
:1034600038BD00001FB50293069B0193054B0093E6
:103470000023FEF781F9002801DCFEF767FA05B0AA
:103480005DF804FBA934000010B50346D0F88401B0
:103490000860B3F89601C3F88411441CA3F8964160
:1034A00008814A6010BD00002DE9F0474C4BB2B0D6
:1034B0001B68C0F87431002603A9C0F87061C0F819
:1034C0007C11044600F5B87800F01AFB454BD4F89F
:1034D00078511B88A4F894310123A4F89631424B0B
:1034E00084F89A61C4F888616B60404BC5E9023486
:1034F0000DB9FEF72BFA2B6828461B6898473C4A03
:1035000004F118012046FFF7BFFF3A4A04F10C010D
:103510002046FFF7B9FF384A21462046FFF7B4FF9F
:1035200004F5CE77082101A8FEF7B0FE082201A914
:103530003846FEF721FE3A4604F124012046FFF703
:10354000A3FF84F89861D4F88C61F6B92B682B4AF4
:10355000DE68012319462846B0474FF001090720CD
:10356000FEF7AAF98107064603D52B6828461B6992
:103570009847720710D4F307F1D54046FEF7E2FDF5
:103580000028ECD043689847E9E7736831461B6828
:10359000204698473668D8E7EFF3108372B60022CA
:1035A000D4F890A1C4F8902183F310881427BAF1BD
:1035B000000FE0D09AFAAAF3B3FA83F3072B09FAC3
:1035C00003F2CBBF083B07FB034307FB0343986BA6
:1035D000C8BFD3F8D8002AEA020AFFF755FEE6E78B
:1035E0007C08002008090020B9320000693300007F
:1035F000DB5A0000E65A0000005B0000A15B0000FF
:1036000010B5D0F8882100F5C4730020441C1AB905
:1036100080B20883196010BD1B6820461A68F5E760
:10362000D0F88C2100F5C6730AB9196070471B6881
:103630001A68F9E710B5806800B910BD83685C7A34
:103640008C4202D11B7A9342F7D00068F4E7F8B5B8
:103650000446D0F87801069E0D4611461A4608B970
:10366000FEF774F903685F683346B84778B1837A28
:1036700014225343027A012A0CBFD033303323443F
:103680009E81986015B1AA681A60AB601846F8BDB3
:1036900008B503468068827A0AB9FEF757F9012116
:1036A0001974BDE80840FFF7FBBD08B50346806804
:1036B000827A0AB9FEF74AF900211974BDE8084078
:1036C000FFF7EEBD10B508B9FEF740F90368002B0F
:1036D000FAD01B68BDE810409B691847F7B5CB6866
:1036E00043F001030026CB60402701230C460E76F1
:1036F0001A46314600970546FFF7A9FF8368A36382
:1037000001223346009731462846FFF7A0FF836821
:10371000636303B0F0BD10B50A4608B9FEF716F9A9
:103720000368002BFAD01B681C6A0221A4460423FC
:10373000BDE81040604710B50A4608B9FEF706F923
:103740000368002BFAD01B685C6A0021A4460123A1
:10375000BDE81040604710B508B9FEF7F7F80368F8
:10376000002BFAD01B68BDE81040DB6A1847000048
:1037700010B50C46C2B980F89B210A76886BFFF71A
:10378000A1FF606BFFF79EFFA06B0849FFF7D3FF17
:10379000606B0649FFF7CFFF606B04F13C014022EC
:1037A000BDE81040FFF7D7BF10BD00BFA25B00000F
:1037B0002DE9F3410C460B7C91F9101000290546C8
:1037C00003DBE28A206B904210D803F01F02012A2B
:1037D00000F0AE80022A00F0CA80002A40F0EF809C
:1037E0000029637C76DA43B1062B11D0D5F8780135
:1037F000002840F0DF80FEF7A9F895F89B315B00C8
:10380000022201A92846ADF8043000F0AAF948E0E8
:10381000638A1A0A013A052AE8D801A151F822F070
:10382000393800004938000051380000ED370000F9
:10383000ED370000BD380000284600F071FB00287D
:10384000D4DB00F0BC802CE0284600F065FAF6E7F7
:10385000D5F88461002EC9D013F0FF030BD14FF4CB
:103860004173022269462846ADF8003000F079F92C
:1038700040F20943C4E703228DF8052032899A42B9
:1038800000F0B6803668002EF8D1AFE7284600F089
:1038900093F90021284600F08FF916F8011F00293E
:1038A000F4D194F91030002B80F28C80012328464B
:1038B000237602B0BDE8F04100F09AB9D5F878015E
:1038C00000238DF80430036801AA9E6804210123B7
:1038D000B0478BE7052B11D0092B87D10323D5F8EF
:1038E000886185F89831002EDBD0B76857B9D6F8D3
:1038F0000C80B8F1000F0DD13668F4E7638A85F8C3
:103900009A31CEE7FB7B1BB14249B868FFF713FF42
:103910003F68EBE7D8F8087017B9D8F80080E8E7F7
:10392000FB7B1BB13C49B868FFF705FF3F68F3E735
:10393000617CA28A03F060030B4302F00F023FF4A4
:103940005FAFD5F88831002B3FF450AF198B91420F
:103950000BD119694868C6683EB1D5F87C2104F1DD
:103960001003127E2846B04769E71B68EBE7A38A7D
:10397000142203F00F001B06637C02FB00F04CBF17
:10398000D0303030012B28440DD0032B04D0002B35
:103990007FF42CAF037C33E7638A002B7FF426AFE0
:1039A000FFF776FE7DE7638A002B7FF41FAFFFF7FA
:1039B0007CFE76E703685B6998470023237602B0B4
:1039C000BDE8F081E38A226B9A420AD20323606B3E
:1039D0002376402204F13C0102B0BDE8F041FFF73C
:1039E000BABE0423A06B2376002204F17C01F3E726
:1039F00002278DF80470706801F0D1F901304000A1
:103A00008DF804003A4601A9284600F0AAF8766825
:103A1000013E42E7A45B0000A35B000073B50546CE
:103A20000C466BBB0B7E042B13D8DFE803F0512B45
:103A300026400300137A012B22D190F89A318BB1E2
:103A400090F89831012B0DD1D0F8780105F5CD72A1
:103A500008B9FDF77BFF0168CE680021B04702235B
:103A600085F898310023606B2376402204F13C01F5
:103A700002B0BDE87040FFF76EBE137A002BF2D0A3
:103A800002B070BD167A012EFAD100F052F828B1BA
:103A900021462846FFF78CFE2676F1E7606B402230
:103AA00004F13C01FFF757FE02232376E8E7137A7F
:103AB000002BE5D1606B019301A9FFF72CFE236B6E
:103AC000019A1344236321462846FFF771FED7E786
:103AD000167A002ED4D13146102204F11C0001F0D8
:103AE00021F9E36B2361236C6361E38A266321463A
:103AF0002846E36202B0BDE87040FFF759BE0000FF
:103B0000034B4B60D0F88C310B60C0F88C117047C0
:103B1000A85B000010B5D0F87C4109B9FDF716FF8D
:103B2000237E032BFAD1606BFFF7F5FD04F13C0017
:103B300010BDD0F87C319A6BD8695268196A02447A
:103B400091420CD9D96A884209D2986A81424FF0D1
:103B5000000005D9C3E90720586201207047002002
:103B60007047D0F87C01F8B5836BC7695D68036A5C
:103B70009F423D4403EB020408D9AB4202D2FE1A35
:103B8000964206D9046200252846F8BDAB42F9D218
:103B90000026AC422CBFED1A951B426A046228BF76
:103BA000AD1B2A44DB1B426233447C302A4631443D
:103BB000184401F0E6F8E7E7D0F87C21D2E90703E2
:103BC000984210B510D8946B64680444A3420BD299
:103BD0001B1A1344012083F87C10136A013313620B
:103BE000536A0133536210BD013313620020FAE7B8
:103BF000D0F87C11C869CA6A4B6A121A9A4228BF67
:103C00001A468B6A886B134410B57C3141F8543CDA
:103C100008B9FDF79BFE0368002BFAD01B68BDE8CE
:103C20001040DB6A184770B506460C4600250CB9F3
:103C3000284670BD62689368127B1AB1A16830464D
:103C40009847034624681D44F1E770B506460C46C4
:103C500000250CB9284670BD63681B681BB1A168BC
:103C600030469847034624681D44F2E770B506467F
:103C70000C4600250CB9284670BD63685B681BB113
:103C8000A16830469847034624681D44F2E70000C7
:103C90002DE9F7434FF00009DFF8788005460C4620
:103CA0004E4640F207571CB9484603B0BDE8F083C2
:103CB00061682846FFF7C9FFA268CDF80360117A52
:103CC000937A8DF80230012904BF63F07F038DF8E9
:103CD0000230537AADF80070013BDBB2032B17D8EA
:103CE00018F803308DF80330A389ADF804300722AB
:103CF000A37B8DF8063069462846FFF732FF6168DE
:103D00002846FFF7B3FF9DF8003024689944CAE7BE
:103D1000FDF71CFEB85B00002DE9F04F8DB07F4A27
:103D2000039200230122ADF810308DF8112080227B
:103D30008DF8132032228DF81420D0F888218DF8C8
:103D40001230044652BBD4F880118DF81030204652
:103D5000FFF769FFD4F88851093015BB238CADF803
:103D60000E00092203A920468DF81230FFF7F9FE54
:103D7000D4F880112046FFF779FFD4F8886100F16C
:103D80000907A84640F20949002E42D1BDF80E00AD
:103D90002F44B84200F0BF80FDF7D8FD1268013310
:103DA000D0E700F1090769682046FFF73CFFAE68DD
:103DB0000744002046B9D5F80C800744B8F1000F3D
:103DC0000BD12D68B819C8E7716800F107082046C3
:103DD000FFF729FF36684044ECE7D8F80410204686
:103DE000FFF721FF0936D8F808A006440020BAF1F1
:103DF000000F03D1D8F800800644DFE7DAF804109A
:103E000000F107092046FFF70EFFDAF800A048444A
:103E1000EDE771682046FFF718FF338BCDF81A8065
:103E20008DF81A30B37ECDF81D808DF81D30F37EED
:103E30008DF81E30B268337F8DF81F308246093509
:103E4000ADF8189000230ABB8DF81C30736913B1CC
:103E50001B898DF82030092206A92046FFF781FE34
:103E600071682046FFF702FFAA448244B1682046E9
:103E7000FFF70EFF0AEB0005D6F80CA00122002088
:103E8000BAF1000F05D1366805447DE712680133A9
:103E9000D9E7338B8DF82630B37ECDF828808DF8A6
:103EA0002C808DF82930F37E8DF82A3002F1010B39
:103EB000337FDAF808108DF82B308DF82720ADF815
:103EC000249000F109035FFA8BFB002201BB8DF8FF
:103ED0002820DAF80C2012B112898DF82C20092242
:103EE00009A920460193FFF73CFEDAF804102046AA
:103EF000FFF7BCFE019BDAF808100344204601934B
:103F0000FFF7C6FE019BDAF800A018445A46B7E74F
:103F100009680132DAE70DB0BDE8F08F0902090047
:103F20007FB50022ADF808208DF80A200F4A0192D3
:103F300040228DF80B200E4A03924FF48072ADF8A8
:103F400010200289838D8DF81220828A8DF813202B
:103F50008DF814301222012301A98DF81530FFF7D6
:103F600000FE122007B05DF804FB00BF1201000242
:103F70000912007D0AB981F87C20704707B540F628
:103F80000833ADF800300B8D8DF8023002238DF828
:103F90000330082240F2022369460193FFF7E1FD56
:103FA000082003B05DF804FB2B4B2DE9F743C1F863
:103FB00084302A4B0962C1E9153140F202234B8556
:103FC00001F150034B610A230026A1F84A3001F1A8
:103FD000100808230E6581F82C6081F84C604E6350
:103FE00009640C4600930222012341460546FFF76F
:103FF0002EFB08B9FDF7AAFC40F2FF1304F13007CD
:104000004FF04009C3810322CDF8009001233946C7
:104010002846FFF71CFB86730028EBD00123C373EF
:104020000322CDF80090334639462846FFF70FFBB0
:104030000028DFD04FF48073C38141462846FFF744
:10404000DFFA39462846FFF7DBFAE36843F001035D
:10405000E36003B0BDE8F083C3410000BC5B000037
:1040600037B5194B009304460D46012369460522D6
:104070008DF80430FFF775FD144B00936946042258
:104080002046FFF76EFD42F205412A8DADF8001083
:104090000621B5F848308DF802108DF803206946E6
:1040A000052220468DF80430FFF75BFD084AB5F87D
:1040B000483000926946052220468DF80430FFF70B
:1040C00050FD132003B030BD05240020042402025B
:1040D0000524010010B508B9FDF738FC0368002B72
:1040E000FAD01B68BDE81040DB6A1847F8B5436F8B
:1040F00093F89831032B04460D4626D190F87C3076
:10410000012B22D1EFF3108672B600F16407EFF3B2
:10411000108172B6D4E91B2381F310889A420AD029
:104120003846FFF734F8A36F5A1C23443F2AA2678E
:1041300083F8D000EBD986F31088A26F04F1D00188
:104140002846BDE8F840FFF7C5BFF8BD73B5138931
:10415000B3F5407F0C4615461AD10AB9FDF7F6FBB8
:104160001368002BFAD01B681E6A04230DEB0302B0
:1041700002212846B047019A04F190061AB1E36D76
:10418000314620469847402231462846FFF7A2FF95
:104190002A8940F201339A4211D10023A367EFF339
:1041A000108172B6D4E91B2381F310889A4206D09D
:1041B0002946204602B0BDE87040FFF797BF02B025
:1041C00070BD50F8083C803823B9836B1B68996830
:1041D000FFF78CBF70472DE9F04190F87C300D4619
:1041E000144600F164074BB1EFF3108472B6384601
:1041F000FFF71AF884F31088BDE8F081EFF310861A
:1042000072B6EFF3108272B6016FD0E91A30034430
:10421000A3EB010882F31088444510D92144C91A40
:104220003846FEF7C9FF00EB0802A31A1D442946D1
:104230003846FEF7F9FF86F310882046DCE7224671
:10424000F5E7436F2BB100F1800103F5B870FDF77E
:1042500059BF70477FB50C465978212933D02229A0
:1042600037D020292CD1DB88072B29D1032A1BD159
:10427000002303A90393FFF74DFC039B072B05467F
:104280001ED1437982790168007900902046FEF7BB
:10429000EDFF266E5EB92B68C4F88830AB88A4F8B1
:1042A0008C30AB7984F88E30012004B070BD287951
:1042B0006B79AA79296800902046B0470028EADA8D
:1042C0004FF0FF30F1E7072204F18801FFF749FCC6
:1042D000EAE75B8813F0010315D0012384F87C30F2
:1042E0000022032104F13000FFF7A4F908B9FDF71B
:1042F0002DFB8068402204F19001FFF7EBFE204681
:10430000FFF79FFFD0E784F87C30CDE72DE9F84335
:10431000DDE908960C460546904600214FF4A87248
:1043200020461F4600F0FEFC65671EB1734236EA68
:10433000030301D0FDF70AFB054B6360C4E919963E
:10434000C4E9178721462846BDE8F843FFF768B956
:10435000CC5B000038B50C468D18AC4200D138BD9E
:1043600014F8011B0148FDF786FFF6E70402002060
:10437000F8B505460C4606460CB9701BF8BD22463A
:1043800031460548FFF727FF07460348FFF759FF67
:104390003E44E41BF0E700BF0412002007B5802371
:1043A0000193054B0093054A05490023FFF7AEFF33
:1043B00003B05DF804FB00BF8411002055430000EA
:1043C0000412002000F12401006A00F00FB910B5BA
:1043D0000446006A4369013314D000F0CAF880B182
:1043E000626B94F83840A2FB0023C4F1200003FA6A
:1043F00000F0A4F12001E240024323FA01F142EA75
:10440000010010BD83685B689847E8E730B4436CEF
:1044100090F840501944C36BC5F12004A1FB03136D
:10442000A5F12002E94003FA04F4214323FA02F241
:104430000A4330BC00F12401006A00F0F0B800002B
:104440002DE9F04104460F461546002148221E463C
:1044500000F068FC1D4BA3601D4B2762C4E90B34C0
:104460000DB9FDF773FA002EFBD03246294604F150
:104470003400FDF7B3FE2A46314604F13C00FDF757
:10448000ADFEB5424FF0FF3319D294F83850616B4E
:10449000C5F12000A1FB031303FA00F0A5F12002EF
:1044A000E94023FA02F2014311434B1C61610AD037
:1044B000A36820461B68BDE8F04149081847B5FBD2
:1044C000F6F563616564BDE8F08100BFDC5B000068
:1044D0008D4600000346006838B10A6822B9D868E2
:1044E000431A5842584170470120704703460068FC
:1044F00048B1416831B902681A600AB9DA60704798
:104500000160704700207047416902688368B1F11B
:10451000FF3F07D01B6849081AB15268914228BF73
:104520001146184712B11B685168FAE79B68184793
:1045300038B505460C46FFF7CDFF08B9FDF706FA7A
:1045400028460246006898B1A042FAD1EB68A3421F
:1045500004D1AA4214BF13460023EB602368136002
:104560001BB15A6861680A445A6000232360012025
:1045700038BD38B5436904460BB9FDF7E7F9EFF3E9
:10458000108572B683685B6898470246A069E36944
:1045900082423DBF61690131891811461B1A5818C2
:1045A000C4E9062085F3108838BD4269013201D084
:1045B000FFF7DFBF83685B68184738B50546446876
:1045C000FFF7F3FF2B6833B1021B002459689142B7
:1045D00003D3891A5960686038BD521A5C601B6841
:1045E000002BF8D059680029F9D0EFE7F8B5054657
:1045F0000E46EFF3108772B6FFF76CFF044650B11A
:104600002846FFF7DAFF31462846FFF791FF0446B8
:104610002846FFF779FF87F310882046F8BD2DE97B
:10462000F04105460E461446EFF3108872B6FFF7C8
:10463000C4FF314607462846FFF74CFF10B1284615
:10464000FFF776FF2B8AA34234BFE21A0022726082
:104650002B4600211C461B6883B9501A33607060DA
:1046600093B1891A5A680A445A6026602846FFF7AF
:104670004BFF88F310883846BDE8F081586808443D
:104680008242EAD30146E5E7EE60EEE74369013393
:1046900010B5044619D0FFF788FF236883B161681D
:1046A0005B681944081A00280FDD6169A36849088E
:1046B00081421B6828BF01462046BDE810401847CC
:1046C0006169A36849081B68F6E723683BB920467F
:1046D000FFF71AFFEFF30583DBB2BBB110BD6268D1
:1046E00059680A44626000225A602046FFF7FEFEC5
:1046F0000028ECD0D0E9023098472046FFF7F6FEBC
:104700000028F7D12046FFF758FFEEE7034B4FF0A4
:1047100080525A60BFF36F8FE0E700BF00ED00E00A
:1047200010B50A4800F036F8084909484FF400432C
:104730004FF47A72FFF784FEBDE810400349054844
:104740004FF400430122FFF77BBE00BFE4130020BB
:104750009C13002054130020FDF7BEBFFDF7A2BF3D
:1047600070B504460D46EFF3108672B6FDF79AFF5A
:10477000022D2CBF401902300449224620F07F4010
:10478000FDF796FF86F3108870BD00BF91470000CB
:10479000FFF77CBF0A4B10B5044683606FF07F4380
:1047A0004361FDF76BFFFDF79FFF61694B1C06D06E
:1047B000A36820461B68BDE810404908184710BD93
:1047C000F05B0000FCF78ABE30B50B4687B0EFF314
:1047D000058212F0FF0201D0FDF7B8F8458A0A4CB5
:1047E00002924FF0FF3101919D42039202A904947D
:1047F00038BF5A1B01AC0594FFF711FF0121204679
:10480000FCF736FE07B030BDC547000070B50F4E4F
:104810000C463168054611B9FDF772FD306021463E
:104820002846FDF76DFD431C03D14FF0FF342046B1
:1048300070BDC41C24F00304A042F8D0211A2846FD
:10484000FDF75EFD0130F2D1EFE700BF0414002058
:104850002DE9F843CD1C25F0030508350C2D38BF94
:104860000C25002D064601DBA94204D90C23336038
:104870000020BDE8F883DFF8D48000F013F9D8F801
:1048800000301C4644BB29463046FFF7BFFF431C9F
:10489000044658D1D8F800402746002F43D1002CB9
:1048A0004BD023683946304604EB0309FDF728FD59
:1048B000814542D121686D1A29463046FFF7A6FF8F
:1048C00001303AD023682B442360D8F800305A686E
:1048D00062BBC8F800700FE02268521B20D40B2A7C
:1048E00017D96119A342256018BF5960636808BFD2
:1048F000C8F8001062514B60304600F0D9F804F15E
:104900000B00231D20F00700C21A1CBF1B1AA35066
:10491000AFE76268A3420CBFC8F800205A60EBE71B
:1049200023466468AEE73C467F68B6E71A465B6894
:10493000A342FBD100235360DEE70C2333603046F3
:1049400000F0B6F894E70560D6E700BF0814002031
:10495000B1F90C202DE9F041160705460C4651D45B
:104960004B68002B02DC0B6C002B49DDE66A002E45
:1049700046D0002312F480522F682B6031D0626D34
:10498000A389590705D56368D21A636B0BB1236CF1
:10499000D21A0023E66A216A2846B047421CB4F9BD
:1049A0000C3006D129681D2946D8294ACA40D607A5
:1049B00042D500226260D9042269226004D5421CDB
:1049C00001D12B6803B96065616B2F60C1B104F13F
:1049D0004403994202D0284600F0EAF900236363B9
:1049E0000EE0216A01232846B0470246501CC7D179
:1049F0002B68002BC4D01D2B01D0162B1AD12F6091
:104A000000201EE00F69002FFAD093070E6808BF40
:104A10004B690F6018BF0023A6EB07088B60B8F145
:104A2000000FEDDD216AA66A43463A462846B047A4
:104A3000002808DCB4F90C3043F04003A3814FF0A8
:104A4000FF30BDE8F0810744A8EB0008E7E700BFAE
:104A50000100402038B50B6905460C4613B9002506
:104A6000284638BD18B1036A0BB900F0B5F8B4F99F
:104A70000C30002BF3D0626ED00704D4990502D419
:104A8000A06D00F07CF928462146FFF761FF636EB8
:104A9000DA070546E4D4A3899B05E1D4A06D00F0B4
:104AA0006FF9DDE7014800F06AB900BF4815002042
:104AB000014800F065B900BF48150020002310B57B
:104AC0000446C0E90033C0E9043383608181436652
:104AD000C2818361194608225C3000F023F90D4B36
:104AE00063620D4BA3620D4BE3620D4B23630D4BD1
:104AF00024629C4206D003F16802944202D0D03373
:104B00009C4205D104F15800BDE8104000F036B9D0
:104B100010BD00BFE95300000B54000043540000D7
:104B2000695400000C140020024A0349034800F0B5
:104B30006BB800BF18020020554A00002802002070
:104B400041680C4B994210B5044601D0FFF782FF33
:104B5000A168094B994202D02046FFF77BFFE1682C
:104B6000064B994204D02046BDE81040FFF772BFC3
:104B700010BD00BF0C14002074140020DC140020B1
:104B80000C4B0D4A0D4810B504211A600022FFF7A6
:104B900095FF0A4B01221C46092103F16800FFF72B
:104BA0008DFF04F1D0000222BDE810401221FFF772
:104BB00085BF00BF44150020294B00000C140020C5
:104BC000014800F0DCB800BF49150020014800F0A2
:104BD000D7B800BF4915002010B50446FFF7F0FF15
:104BE000236A1BB1BDE81040FFF7F0BF044B2362FE
:104BF000044B1B68002BF5D1FFF7C2FFF2E700BFA3
:104C0000414B0000441500202DE9F8430746884633
:104C100014460026D4E90195B9F1010905D52468A7
:104C2000002CF7D13046BDE8F883AB89012B07D9BA
:104C3000B5F90E30013303D029463846C047064344
:104C40006835E9E70FB407B5064904AB086853F8BF
:104C5000042B8168019300F01FF903B05DF804EBA9
:104C600004B0704724020020036A70B584680546CA
:104C70000E460BB9FFF7B0FF636EDB0705D4A389BF
:104C8000980502D4A06D00F07AF8A389190702D51F
:104C90002369002B35D12146284600F027FC80B33C
:104CA0004FF0FF35636EDA0705D4A3899B0502D464
:104CB000A06D00F065F8284670BD002B04DAA269EB
:104CC000934217DB0A2915D023685A1C22601970F9
:104CD000A36816F8011F013BA3600029EDD1002B4A
:104CE00011DA22460A21284600F0C2FB0130D7D053
:104CF0000A25D7E72246284600F0BAFB0130E7D163
:104D0000CEE7013EE4E723685A1C22600A221A70AB
:104D1000EEE70000024B01461868FFF7A5BF00BF91
:104D20002402002002440346934200D1704703F856
:104D3000011BF9E770B50D4B0D4D5B1B9C10002658
:104D4000A64209D1FDF7D4FA0A4D0B4B5B1B9C1010
:104D50000026A64205D170BD55F8043B98470136A0
:104D6000EEE755F8043B98470136F2E71C5C00007B
:104D70001C5C00001C5C00001C5C0000704770475D
:104D800070470A44914200F1FF3300D1704710B5DB
:104D900011F8014B03F8014F9142F9D110BD0346C0
:104DA00013F8012B002AFBD1181A013870470000B4
:104DB00038B50546002941D051F8043C0C1F002BA2
:104DC000B8BFE418FFF76EFE1D4A136833B963607D
:104DD00014602846BDE83840FFF76ABEA34208D9F0
:104DE000206821188B4201BF19685B68091821608F
:104DF000EDE71A465B680BB1A342FAD91168501867
:104E0000A0420BD120680144501883421160E0D1C8
:104E100018685B68536008441060DAE702D90C2315
:104E20002B60D6E7206821188B4204BF19685B68A5
:104E3000636004BF091821605460CAE738BD00BF31
:104E4000081400209368013B002B10B4936008DA2B
:104E50009469A34201DB0A2903D15DF8044B00F0F9
:104E600007BB1368581C1060197008465DF8044BA6
:104E70007047F8B506460F461446D518AC4201D126
:104E8000002007E014F8011B3A463046FFF7DAFF2E
:104E9000431CF3D1F8BD00002DE9F0470D469CB04E
:104EA00014461F46064618B1036A0BB9FFF794FE75
:104EB0006B6ED90705D4AB899A0502D4A86DFFF7AC
:104EC0005EFFAB891B0701D52B699BB9294630468C
:104ED00000F00CFB70B16B6EDC0704D54FF0FF30B7
:104EE0001CB0BDE8F087AB899805F7D4A86DFFF733
:104EF00047FFF3E70023099320238DF82930039718
:104F000030236A4F8DF82A304FF001082346994626
:104F100013F8012B0AB1252AF9D1B9EB040A0BD0F9
:104F20005346224629463046FFF7A3FF013000F0E2
:104F3000A480099A5244099299F80030002B00F09D
:104F40009C8000234FF0FF32CDE9052309F10109D0
:104F5000049307938DF853301A934C46534814F832
:104F6000011B052200F074FB049BD0B9D90644BF95
:104F700020228DF853201A0744BF2B228DF853208E
:104F800099F800202A2A13D0079A4C4600204FF0A7
:104F90000A0C214611F8013B303B092B49D968B96D
:104FA00013E0C01B08FA00F018430490A146D4E7B0
:104FB000039A111D12680391002A01DB079204E095
:104FC000524243F002030792049323782E2B0AD116
:104FD00063782A2B32D1039B1A1D1B68039243EA84
:104FE000E37302340593DFF8D49021780322484616
:104FF00000F02EFB38B1049BA0EB09004022824058
:1050000013430134049314F8011B29488DF8281028
:10501000062200F01DFB00283ED0264818BB039B4B
:10502000073323F0070308330393099B03440993D1
:105030006CE70CFB02320C460120AAE70023013486
:10504000059319464FF00A0C204610F8012B303A10
:10505000092A03D9002BC6D00591C4E70CFB012116
:1050600004460123F0E703AB00932A46124B04A940
:105070003046AFF30080431CD7D16B6ED90705D4FF
:10508000AB899A0502D4A86DFFF77AFEAB895B065F
:105090003FF524AF099823E703AB00932A46064B5C
:1050A00004A9304600F07AF8E5E700BF0C5B000089
:1050B000165B000000000000734E0000125B000051
:1050C0002DE9F047164698468A680B69DDF820906E
:1050D0009342B8BF1346336091F8432007460C460D
:1050E0000AB1013333602368990642BF3368023343
:1050F0003360256815F0060506D104F1190AE36846
:1051000032689B1AAB4226DC94F843302268003B9D
:1051100018BF012392062BD404F1430241463846BE
:10512000C84701301ED02368226903F00603042B10
:1051300002BFE5683368ED1AA3680CBF25EAE57580
:1051400000259342C4BF9B1AED1800261A34B542BD
:105150001AD1002008E00123524641463846C8478C
:10516000013003D14FF0FF30BDE8F0870135C6E7CD
:10517000E1185A1C302081F84300224494F845106D
:1051800082F843100233C7E70123224641463846DE
:10519000C8470130E6D00136D9E700002DE9F043D9
:1051A0000D7E85B0782D90460C9E07460C4699469C
:1051B00001F1430207D8622D0AD8002D00F0D780F4
:1051C000582D00F0BC8004F1420684F842503BE0C8
:1051D000A5F16303152BF6D801A151F823F000BF08
:1051E000395200004D520000C7510000C751000065
:1051F000C7510000C75100004D520000C7510000C8
:10520000C7510000C7510000C751000055530000AE
:105210007752000007530000C7510000C75100003B
:1052200077530000C751000077520000C7510000BB
:10523000C75100000F53000033681A1D1B6832600D
:1052400004F1420684F842300123A1E0336820686B
:10525000191D3160060601D51D6803E04506FBD522
:10526000B3F90050002D03DA2D236D4284F843304A
:105270005B480A2311E021683368080653F8045B91
:1052800002D4490648BFADB23360237E54486F2B29
:105290005CD10823002184F843106668A660002EC4
:1052A00005DB21682E4321F00401216050D0164611
:1052B000B5FBF3F103FB115C10F80CC006F801CD4F
:1052C000AC4663450D46F3D9082B0BD12368DB07A9
:1052D00008D5236961689942DEBF302306F8013C96
:1052E00006F1FF36921B2261CDF80090434603AAD7
:1052F00021463846FFF7E4FE01304ED14FF0FF3033
:1053000005B0BDE8F083236843F0200323603548EF
:10531000782584F845502368316813F0800F51F8E0
:10532000045B03D113F0400F18BFADB23160D90751
:1053300044BF43F0200323601DB11023AAE728488F
:10534000E7E7236823F020032360F6E70A23A1E7B9
:105350001646B9E7336825686169181D30602E0666
:105360001B6801D5196002E06806FBD5198000238F
:1053700023611646B8E733681A1D32601E686268FA
:105380000021304600F064F908B1801B606063685A
:105390002361002384F84330A6E72369324641465F
:1053A0003846C8470130A9D023689B0713D4E0686A
:1053B000039B9842B8BF1846A2E7012332464146F4
:1053C0003846C847013099D00135E36803995B1A24
:1053D000AB42F2DCEBE7002504F11906F5E700BF6C
:1053E0001D5B00002E5B000010B50C46B1F90E10DD
:1053F000FCF7A4FF0028ABBF636DA3891B1823F43F
:105400008053ACBF6365A38110BD2DE9F0411F46F9
:105410008B89DB0505460C46164605D5B1F90E10FD
:1054200002230022FCF797FFA389B4F90E1023F49E
:105430008053A38132463B462846BDE8F041FCF745
:1054400081BF10B50C46B1F90E10FCF784FFB4F91A
:105450000C30421C0BBF23F4805343F48053A381D0
:10546000A38118BF606510BDB1F90E10FCF76EBFC7
:10547000F8B50E461446054618B1036A0BB9FFF796
:10548000ABFBA369A360A3891A0701D5236943B9BC
:105490002146284600F02AF818B14FF0FF37384669
:1054A000F8BD23682269981A6369F6B283423746C9
:1054B00005DC21462846FFF7CDFA0028EDD1A36888
:1054C000013BA36023685A1C22601E706269431C62
:1054D0009A4204D0A389DB07E1D50A2EDFD1214609
:1054E0002846FFF7B7FA0028D9D0D6E738B5284BB9
:1054F000054618680C4618B1036A0BB9FFF76CFB38
:10550000B4F90C301A0721D4D80607D409222A602E
:1055100043F04003A3814FF0FF3030E0590712D52C
:10552000616B41B104F14403994202D02846FFF770
:105530003FFC002363630022B4F90C3062602269EF
:10554000226023F0240343F00803A38122693AB9BF
:105550009A0501D5180603D52146284600F03EF8E5
:10556000B4F90C3013F001020AD00022A260626983
:105570005242A261226942B913F08000C8D138BDFD
:10558000990758BF6269A260F4E70020F7E700BFFF
:105590002402002070B50C46B1F90E10002996B017
:1055A00015461E460ADAA18911F0800113D14FF485
:1055B0008062002031602A6016B070BD6A46FCF738
:1055C000CFFE0028EFDB019901F47041A1F50053F3
:1055D00059425941EBE700214022EAE78B8973B534
:1055E0009E0705460C4607D504F147032360236157
:1055F0000123636102B070BD01AB6A46FFF7CAFFC9
:10560000009E28463146FFF723F9B4F90C3038B92B
:105610009A05EFD423F0030343F00203A381E3E7E9
:1056200043F08003A381019B2060C4E90406002BA2
:10563000E0D0B4F90E102846FCF797FE0028D9D028
:10564000A38923F0030343F00103A381D2E7000001
:1056500001F0FF01102A2BDB10F0070F08D010F823
:10566000013B013A8B422DD010F0070F42B3F6D127
:10567000F0B441EA012141EA014122F007047FF040
:1056800000070023F0E80256083C85EA010586EA97
:10569000010685FA47F5A3FA87F586FA47F6A5FAD3
:1056A00087F68EB9EED1F0BC01F0FF0102F00702DF
:1056B00032B110F8013B013A83EA010313B1F8D18A
:1056C0000020704701387047002D06BF354603386B
:1056D000073815F0010F07D1013015F4807F02BFA4
:1056E000013015F4C03F0130F0BC0138704700BFF5
:1056F000626F6F74007374617274202854454D504A
:105700005F4F53525F424954533D2564290A005369
:10571000656E736F725F496E6974206661696C654E
:105720006400536574206F76657273616D706C6987
:105730006E67206661696C656400256C75204F4B4F
:1057400020256C750A00256C75204552520A0064AC
:105750006F6E650075736275730073636865647559
:105760006C657228293A20737461636B206F7665CB
:1057700072666C6F772064657465637465642C2051
:105780007069643D2568690A00535441434B204FBA
:10579000564552464C4F57004641494C45442041DE
:1057A0005353455254494F4E2E0030782578203DB2
:1057B0003E20006D61696E28293A20546869732083
:1057C00069732052494F5421202856657273696FBE
:1057D0006E3A20323032352E30372D646576656C66
:1057E0002D3339312D6731363837392D484541440D
:1057F00029006D61696E002A2A2A2052494F5420DF
:105800006B65726E656C2070616E69633A0A257310
:105810000A0A002A2A2A2068616C7465642E0A002C
:10582000496E73696465206973722025640A004EAD
:105830004D492048414E444C4552004D454D204D68
:10584000414E4147452048414E444C455200425547
:1058500053204641554C542048414E444C4552003B
:105860005553414745204641554C542048414E44EC
:105870004C4552004445425547204D4F4E2048412B
:105880004E444C45520044554D4D592048414E44DC
:105890004C4552000A49535220737461636B206F68
:1058A000766572666C6F77656400537461636B2014
:1058B000706F696E74657220636F72727570746553
:1058C000642C20726573657420746F20746F70206F
:1058D0006F6620737461636B006163746976652021
:1058E0007468726561643A202568690A000A436F2A
:1058F0006E74657874206265666F72652068617287
:10590000646661756C743A0020202072303A203051
:10591000782530386C780A20202072313A2030788F
:105920002530386C780A20202072323A20307825D1
:1059300030386C780A20202072333A2030782530B5
:10594000386C780A0020207231323A2030782530C5
:10595000386C780A2020206C723A20307825303854
:105960006C780A20202070633A2030782530386C1B
:10597000780A20207073723A2030782530386C789D
:105980000A0A004653522F4641523A0020434653DA
:10599000523A2030782530386C780A002048465337
:1059A000523A2030782530386C780A00204446532B
:1059B000523A2030782530386C780A00204146531E
:1059C000523A2030782530386C780A00204246411F
:1059D000523A2030782530386C780A004D4D4641D7
:1059E000523A2030782530386C780A004D6973635C
:1059F000004558435F5245543A2030782530386C82
:105A0000780A004163746976652074687265616420
:105A10003A2025686920222573220A0048617264B1
:105A2000206661756C74206F6363757272656420A3
:105A3000696E20495352206E756D6265722025642F
:105A40000A00417474656D7074696E6720746F200C
:105A50007265636F6E7374727563742073746174AE
:105A60006520666F7220646562756767696E672E70
:105A70002E2E00496E204744423A0A202073657456
:105A8000202470633D3078256C780A20206672618E
:105A90006D6520300A202062740A000A49535220A2
:105AA000737461636B206F766572666C6F77656483
:105AB000206279206174206C6561737420256420F4
:105AC00062797465732E0A0048415244204641555C
:105AD0004C542048414E444C45520055534220639B
:105AE0006F6E666967007365656564737475646974
:105AF0006F2D7869616F2D6E7266353238343000E3
:105B000052494F542D6F732E6F726700232D302B27
:105B10002000686C4C0065666745464700303132AE
:105B20003334353637383941424344454600303105
:105B30003233343536373839616263646566000262
:105B40000103010101040101010101010105030437
:105B5000232F3031323334353637383941424344DC
:105B60004546000000400040050400000000980188
:105B7000892E0000CD290000F12C0000C72C000068
:105B8000B72A0000832A00008D2A0000512C000053
:105B90000F2D0000552C00007D2D00001D2B000056
:105BA0000001010101000000DD3600007137000036
:105BB0001D3A000000000000000302017D3F0000CC
:105BC000614000001B00000000000000A93F000031
:105BD000753F00004D410000554200000D4400009B
:105BE000CF430000C5430000541300209C13002045
:105BF000614700005D470000594700002147000051
:105C0000011400006F3100006931000057310000BD
:0C5C1000000000000000000071430000D4
:085C1C0082F1FF7F010000008E
:105C24004C1500204411002040000000000000003A
:105C340000000000FFFFFFFF000000000300000061
:105C44000C14002028020020000000000C14002086
:105C540074140020DC140020000000000000000088
:105C64000000000000000000000000000000000030
:105C74000000000000000000000000000000000020
:105C84000000000000000000000000000000000010
:085C9400000000002C210000BB
:0400000300001C4994
:00000001FF
